:020000040800F2
:1000000048A4002049030008995B0008414E0008FD
:10001000615A0008291B00089180000800000000B8
:10002000000000000000000000000000890200083D
:100030006122000800000000E502000809640008D1
:1000400063030008630300086303000863030008F8
:1000500063030008630300086322000863030008C9
:1000600063030008630300086303000863030008D8
:1000700041210008630300086303000863030008CC
:10008000630300086303000863030008391B0008CA
:100090002D1B0008630300086303000863030008C6
:1000A00063030008E16400086303000863030008B9
:1000B0006303000863030008630300086303000888
:1000C0006303000863030008630300086303000878
:1000D00063030008798000086303000863030008D5
:1000E0006303000863030008630300086303000858
:1000F0006303000863030008630300086303000848
:100100006303000863030008630300086303000837
:100110006303000863030008630300086303000827
:10012000630300084D21000863030008630300080F
:10013000630300086303000863030008511B000801
:10014000451B0008630300086303000863030008FD
:1001500059210008652100087121000885800008E8
:1001600063030008630300086303000863030008D7
:100170006303000863030008630300080000000035
:10018000630300086303000800F002F800F06CF855
:100190000AA090E8000C82448344AAF10107DA45E2
:1001A00001D100F061F8AFF2090EBAE80F0013F0C8
:1001B000010F18BFFB1A43F0010318471CD10000C0
:1001C0003CD100000A444FF0000C10F8013B13F042
:1001D000070408BF10F8014B1D1108BF10F8015BA0
:1001E000641E05D010F8016B641E01F8016BF9D193
:1001F00013F0080F1EBF10F8014BAD1C0C1B09D1EA
:100200006D1E58BF01F801CBFAD505E014F8016B5B
:1002100001F8016B6D1EF9D59142D6D370470000ED
:100220000023002400250026103A28BF78C1FBD8FF
:10023000520728BF30C148BF0B60704766290CF0D9
:100240005284642900F02C81002070471FB50CF007
:1002500040FC00F03DFD0400002000210BF0A6FD55
:10026000E0601FBD10B510BD00F036FE1146FFF76F
:10027000EDFF09F013FD00F054FE03B4FFF7F2FFA9
:1002800003BC00F097FE00002C4B19680868B0E82A
:10029000F04F80F30988BFF36F8F4FF0000080F3B9
:1002A000118870470000000008480068006880F36B
:1002B00008884FF0000080F3148862B661B6BFF37F
:1002C0004F8FBFF36F8F00DF00BF00BF08ED00E06E
:1002D000DFF80C00016841F470010160704700BF55
:1002E00088ED00E0EFF30980BFF36F8F134B1A68BE
:1002F0001EF0100F08BF20ED108A20E9F04F1060AB
:1003000009B44FF0500080F31188BFF34F8FBFF353
:100310006F8F0AF069FF4FF0000080F3118809BC6D
:1003200019680868B0E8F04F1EF0100F08BFB0EC75
:10033000108A80F30988BFF36F8F70478004002014
:10034000EFF30580704700000948804709480047DF
:10035000FEE7FEE7FEE7FEE7FEE7FEE7FEE7FEE775
:10036000FEE7FEE704480549054A064B70470000D2
:10037000D164000889010008489E002048A400209C
:1003800048A0002048A0002053EA020C00F0698039
:100390002DE9F04B4FF00006002B1FBFB3FA83F599
:1003A00003FA05F424FA05F65E4012BF1643B2FACA
:1003B00082F502FA05F4C5F120051EBF22FA05FCFC
:1003C00044EA0C04203556EA044C4FEA144418BFA2
:1003D000641C4FF000084FF00009904271EB030CD1
:1003E00039D3002919BFB1FA81F701FA07F6B0FA3B
:1003F00080F700FA07F6C7F120071EBF20FA07FCB6
:1004000046EA0C062037B6FBF4FCA7EB0507103FC5
:1004100007F01F0BCBF120060CFA0BFB2CFA06F6AB
:1004200044BFB3460026202FA4BF5E464FF0000B0A
:100430005BEA060C08BF4FF0010B19EB0B09ABFB95
:10044000027C48EB0608C01B06FB02CC0BFB03CC6E
:1004500071EB0C01C1E70B46024641464846BDE838
:10046000F08B13B54FF000004FF00001AFF30080A8
:10047000BDE81C40704700000FB41CB5074B06AA2E
:100480007B4469460090059800F009FC002069460D
:1004900000F018FC1CBC5DF814FB000041080000D3
:1004A0002DE9F0410646002410687529314616A54D
:1004B00010D0AFF30080002802DA404213A507E015
:1004C00031688A0701D512A502E0490704D511A5B4
:1004D000012401E0AFF3008000210A2206F1240785
:1004E00009E0B0FBF2FCB0FBF2F302FB1C00303081
:1004F00078541846491C0028F3D123462A46304632
:10050000BDE8F04100F05DB9000000002D000000E2
:100510002B000000200000002DE9F0474FF0000AFA
:1005200089460446C0F820A02046E1688847002894
:1005300076D0252806D0D4E901219047206A401CB6
:100540002062F1E7E168204600258847C4F81CA036
:1005500006460027C4F818A02A2E09D0304609F014
:100560007BF938B304EB8708303EC8F8186019E00F
:1005700059F8041B204604EB87029161E168884723
:10058000012F064618D1E069002820DA25F0200561
:100590001DE0D8F8180000EB800006EB4000303872
:1005A000C8F818002046E1688847064609F054F963
:1005B0000028EED1012F0AD02E2E08D12046E16866
:1005C00088477F1C0646022F45F02005C4DBA06942
:1005D000002803DA404245F00105A061E80701D098
:1005E00025F01005B6B1A6F14100192802D8203631
:1005F00045F400654A463146204625604D46FFF7E2
:100600001DFE58B1012806D0ED1D25F0070000F1B0
:10061000080989E704E005F1040985E730468AE71F
:10062000206ABDE8F087032A40F2308010F0030C06
:1006300000F0158011F8013BBCF1020F624498BF35
:1006400011F801CB00F8013B38BF11F8013BA2F1D2
:10065000040298BF00F801CB38BF00F8013B11F04D
:10066000030300F02580083AC0F0088051F8043BED
:10067000083A51F804CBA0E80810F5E7121D5CBF5A
:1006800051F8043B40F8043BAFF30080D20724BF8D
:1006900011F8013B11F801CB48BF11F8012B24BF21
:1006A00000F8013B00F801CB48BF00F8012B704770
:1006B00010B5203AC0F00B80B1E81850203AA0E8FD
:1006C0001850B1E81850A0E81850BFF4F5AF5FEA31
:1006D000027C24BFB1E81850A0E8185044BF18C9E4
:1006E00018C0BDE810405FEA827C24BF51F8043B8B
:1006F00040F8043B08BF7047D20728BF31F8023BDF
:1007000048BF11F8012B28BF20F8023B48BF00F872
:10071000012B70474FF000020429C0F0128010F046
:10072000030C00F01B80CCF1040CBCF1020F18BFCD
:1007300000F8012BA8BF20F8022BA1EB0C0100F060
:100740000DB85FEAC17C24BF00F8012B00F8012B33
:1007500048BF00F8012B70474FF0000200B5134668
:1007600094469646203922BFA0E80C50A0E80C50D1
:10077000B1F12001BFF4F7AF090728BFA0E80C5082
:1007800048BF0CC05DF804EB890028BF40F8042B7B
:1007900008BF704748BF20F8022B11F0804F18BFE8
:1007A00000F8012B704770477047704710B500F094
:1007B00093FA006810BD10B5044600F08DFA04608D
:1007C00010BD2DE9F0470D4699469246044600F1CA
:1007D00024080168880604D5E06921F01001216031
:1007E00000E00120A84201DD471B00E00027A169CD
:1007F0007A1902EB0900081AA0612078C00602D419
:100800002046AFF30080002608E0D4E901211AF861
:1008100006009047206A401C761C20624E45F4DB9F
:100820002078C0060AD52046AFF3008006E0D4E960
:10083000012130209047206A401C2062381EA7F119
:100840000107F4DC07E0D4E9012118F8050090471E
:10085000206A401C2062281EA5F10105F3DC204619
:10086000AFF300802078000602D50220BDE8F087B3
:100870000120FBE770472DE9FF4F0C461E464FF065
:10088000FF378BB0D2E90001DDF860800A908A461C
:10089000C1F30A5505B93D46002108464FF0000056
:1008A000BAF1000F00F4400005DA00EB80004FF4CD
:1008B000400101EA50004FEA9059B9F1010F00DD03
:1008C000B9460A9850EA4A000ED044F61050A5F2F4
:1008D000FF3545432F14B8F1000F1ED07542291E75
:1008E0001EDDC9F100021CE0B8F1010F4FF000005D
:1008F00001D0302103E0F24305E02154401CB04216
:10090000FBDB30460022002121540B99C1F80880FE
:10091000C1E900200FB0BDE8F08FBD1B6D1CDEE704
:100920004A4600DA694206A800F060FA06AB93E88E
:10093000070003AB83E8070050460A9900F041FB2B
:100940008DE80700A0F500501F3800900398002D97
:100950000ADD42F21F014A460844002303A903901E
:10096000684600F0AAFD09E0A0F500504A461F388D
:10097000002303A90390684600F0B4FD8DE807004A
:100980000004000C03D04FF0FF30410800E0104697
:10099000B8F1000F03D00022009215461EE0751E2C
:1009A00005D400F09DF9303262556D1EF9D5B3467D
:1009B0000122084302D000227F1C04E02078302866
:1009C00001D100227F1E002A099784D01DE0112D3D
:1009D00007DA00F085F9303262556D1C50EA0102E9
:1009E000F5D1084302D00098C8B10EE00021681E7E
:1009F00005E0235C625C63542254401E491C814222
:100A0000F7DBAB46A81B401E0990002004F80B0042
:100A10000B98099AC0F80880C0E9002B7AE71126E4
:100A20004FF0000857E72DE9F04F88460446D21DE5
:100A300022F0070191B0D1E90001CDE90A0107F0E8
:100A400063FB02460B98C00F01D02D2007E0206801
:100A5000810701D52B2002E0202101EAC000032AF2
:100A6000099001D0072A05DB03464146204600F0E5
:100A70007DF90BE12078800601D5E06900E00620D1
:100A8000B8F1650F814606D0B8F1660F18D0B8F1FD
:100A9000670F70D131E00020B9F1110F009001DB38
:100AA000112301E009F101030AAA01A90CA8FFF72B
:100AB000E2FEDDE90C70002609F10105834647E0FE
:100AC00001204B4600904FF000470AAA01A90CA84C
:100AD000FFF7D1FEDDE90DB00C995D46002610B997
:100AE00009F101000D18B9EB050003D4C0F1FF3680
:100AF00009F10105A5EB09002BE0B9F1010F01DABD
:100B00004FF001090020B9F1110F0090484601DDB6
:100B1000112300E003460AAA01A90CA8FFF7ABFEC7
:100B2000DDE90C704D4600268346207800070AD484
:100B3000AB4500DA5D4601A8012D04DD411911F82D
:100B4000011C302907D04F4502DA17F1040F04DAEF
:100B5000012082460FE06D1EEEE7002F02DCED1B48
:100B60003E4403E0781CA84200DD7D1CB81B00F168
:100B7000010A4FF000472078000703D4AA4501DBA3
:100B80004FF0FF3A0021B7F1004F0DF143088DF807
:100B9000431024D002202B23002F01DA7F422D2383
:100BA0000A21021EA0F1010000DC5FB197FBF1FCFD
:100BB00097FBF1F201FB1C7C17460CF1300C08F896
:100BC00001CDEEE7A8F1010003702188090501D5E8
:100BD000452100E06521A0F1010800F8011C0998F9
:100BE0000FA9A1EB0807FF1D00B10120411901EB7E
:100BF000EA70A1693844081A401EA0612078C00636
:100C000002D42046AFF30080099828B1D4E901212D
:100C10009047206A401C20622078C00622D52046DA
:100C2000AFF300801EE0002E04DBB34502DD01A817
:100C3000805D00E03020D4E901219047206A401C0B
:100C40002062761CAAF101005FEA000A0AD100F0D6
:100C50003FF8C0680168405CD4E901219047206AF0
:100C6000401C2062281EA5F10105DCDC07E0D4E968
:100C7000012118F8010B9047206A401C2062381EA1
:100C8000A7F10107F3DC2046AFF30080032011B089
:100C900041E6000001694A1C02610878704700B50E
:100CA0008FB0CDE901310021059105497944CDE9A5
:100CB000031011466846FFF72FFC0FB000BD00007F
:100CC000E5FFFFFF0A6802F8010B0A6070470000A9
:100CD00000487047049E002000487047E49D0020B3
:100CE00030B5B0F10A024FEA900E71F100034EEAFE
:100CF000817EB0EB0E0061EB91014FEA101E4EEACF
:100D0000017E10EB0E0041EB11114FEA102E4EEA5E
:100D1000016E10EB0E0041EB11214FEA104E4EEA2E
:100D2000014E10EB0E0041EB1141401841F1000162
:100D30004FEAD00040EA41704FEAD10110EB800544
:100D40004FEA810444EA907444EB01046D1944EBCA
:100D50000404521BA3414FF0000348BF0A3200D5E0
:100D600030BD401C41F1000130BD00002DE9F041D3
:100D70001F46044603260168072A01F4006004DBCD
:100D800008B116A505E016A503E008B115A500E019
:100D900015A521F010002060A069C01EA0610FB150
:100DA000401EA0612046AFF300804FB1D4E901217D
:100DB00038469047206A401C2062C01C206206E032
:100DC000206AFAE7D4E9012115F8010B9047761E55
:100DD000F8D22046AFF30080BDE8F0814E414E00CE
:100DE0006E616E00494E4600696E66002DE9F0475F
:100DF000814616468AB0354878440DC88DE80D0006
:100E000032487844801C03AC0DC884E80D0041F6DC
:100E10009B300844372190FBF1F290FBF1F5A5F1EE
:100E2000800501FB12041B3C02D56442012000E056
:100E30000020DFF898A080460027FA44AAF1BE0AF5
:100E40000EE0E0070AD03246684607EB470101236F
:100E50000AEB810100F046FB8DE8070064107F1C5F
:100E6000002CEED1194F7F44AE3F19E0E80715D0B2
:100E700007EB04100DF1180A90E80E008AE80E0046
:100E8000C068F04201D1981908903246012306A9A2
:100E900003A800F027FB03AB83E807006D10641C78
:100EA000002DE3D14FF0010332466946B8F1000F3F
:100EB00003A802D000F001FB01E000F013FBC9E938
:100EC0000001C9F808200AB0BDE8F08728C4000076
:100ED00000487047E49D00207546FFF7F9FFAE46D5
:100EE00005006946534620F00700854618B020B536
:100EF000FFF738FABDE820404FF000064FF000073A
:100F00004FF000084FF0000B21F00701AC46ACE8B1
:100F1000C009ACE8C009ACE8C009ACE8C0098D461E
:100F2000704710B50446AFF300802046BDE810407E
:100F3000FFF7A3B94FF0013C50F8042B51F8043BE4
:100F40009A4221D1A2EB0C03934313EACC1317D19D
:100F500050F8042B51F8043B9A4215D1A2EB0C0334
:100F6000934313EACC130BD150F8042B51F8043BF4
:100F70009A4209D1A2EB0C03934313EACC13DBD0C2
:100F80004FF00000704700BFD01A01BAB1FA81F1EA
:100F900001F0180122FA01F0CB40C1F12001DBB2CF
:100FA000C0B2C01A2CFA01F3D11A914311EAC3114D
:100FB000E6D1704701491820ABBEFEE726000200CB
:100FC00070475FEA400C08BF91F0000F4FEA8C2396
:100FD0004FEAC12243EA51514FEA1C5018BF00F5B5
:100FE000F0404FEA300018BF41F000415FEA6C5C0E
:100FF00000F02980BCF1FF3F08BF40F080407047FF
:10100000130C06BF12044FF0100C4FF0000C130E1F
:1010100004BF12020CF1080C130F04BF12010CF1F3
:10102000040C930F04BF92000CF1020CD30F04BF09
:1010300052000CF1010C11464FF00002A0F11F000C
:10104000A0EB0C00704711F0004F08BF704731F063
:1010500000413FF4D5AF0B0C06BF09044FF0100C54
:101060004FF0000C0B0E04BF09020CF1080C0B0F23
:1010700004BF09010CF1040C8B0F04BF89000CF1B3
:10108000020CCB0F04BF49000CF1010CCCF1200382
:10109000A0EB0C0022FA03F302FA0CF241EA03017E
:1010A00000F10100704720F07F4C80EA030023F03C
:1010B0007F47ACEB070303F57C5300F0004003F1DE
:1010C000FF032DE980494FEA154B09B44FEA144359
:1010D00025EA0B4E24EA03480FF2042606EB1327F9
:1010E00049083E785FEA320203FB0667C7F500074E
:1010F00007FB06F64FEA54374FEAD64606F10206DA
:1011000007FB066CCCF1005C4FEA1C472CEA074C4D
:1011100007FB06F40CFB06F504EB15464FEA9616A2
:1011200034BF00204FF000404FEAD13706FB07FCE8
:101130004FEA1C4C0CFB0BF7D21B03FB0CF761EBCB
:1011400007010CFB0EF7B0EB074072EB17420CFBEC
:1011500008F734BFA2EB0742B2EB074261EB17413D
:101160004FEA0C444FEA910706FB07FC4FEA1C4C80
:101170000CFB0BF7B0EBC74072EB573203FB0CF7DD
:1011800034BFA2EBC742B2EBC74261EB57310CFB55
:101190000EF7B0EBC70072EB57720CFB08F734BFC9
:1011A000A2EBC702B2EBC70261EB5771039F4FEA94
:1011B000816141EA921104EBCC044FEAD1374FEA46
:1011C000826206FB07FC42EA90124FEA80604FEA17
:1011D0001C4C0CFB0BF7D21B03FB0CF761EB07015C
:1011E0000CFB0EF7B0EB074072EB17420CFB08F755
:1011F00034BFA2EB0742B2EB074261EB17414FEA63
:101200008C554FEA910704EB9C2406FB07FC4FEA40
:101210001C4C0CFB0BF7B0EBC74072EB573203FBD7
:101220000CF734BFA2EBC742B2EBC74261EB5731B8
:101230000CFB0EF7B0EBC70072EB57720CFB08F714
:1012400034BFA2EBC702B2EBC70261EB577115EBDB
:101250004C254FEA816141EA92114FEA82624FEADE
:10126000D13742EA901206FB07FC44F100044FEA32
:1012700080604FEA1C4C0CFB0BF7D21B03FB0CF7F6
:1012800061EB07010CFB0EF7B0EB074072EB174266
:101290000CFB08F734BFA2EB0742B2EB074261EB4D
:1012A000174115EB1C154FEA813141EA92414FEA93
:1012B000823242EA90424FEA80304FEA0C7644F1A3
:1012C000000448EA03434EEA0B484FF0000EB2EB2D
:1012D000080C71EB030724BF624639464EEB0E0E35
:1012E0004FF0000B0018524149414BEB0B0BB2EB96
:1012F000080C71EB03077BF1000B24BF62463946F3
:101300004EEB0E0E4FF0000B0018524149414BEBD3
:101310000B0BB2EB080C71EB03077BF1000B24BF46
:10132000624639464EEB0E0E51EA020718BF46F0F0
:10133000010616EB0E7655F1000254F1000103D5BB
:10134000BDE88901BDE80088BDE88901BDE8004825
:10135000B619524141EB0101A3F1010370478080AE
:101360007F7E7D7C7B7A79787776767574737271FF
:1013700071706F6E6E6D6C6C6B6A6A6968686766B7
:1013800066656464636362616160605F5F5E5E5D49
:101390005D5C5C5B5B5A5A595958585757565655BD
:1013A00055555454535352525251515050504F4F1F
:1013B0004F4E4E4D4D4D4C4C4C4B4B4B4A4A4A496F
:1013C00049494848484747474746464645454544B2
:1013D0004444444343434342424242414141002B3F
:1013E0009C4630D477002BD01CB54FEA370703B4A6
:1013F0004FF010004FF01001BAF1000F06D0BCF111
:10140000000FDCBF40F0080040F008014FF0000082
:101410000FBCBDE810400BF1010BBBF1010F08BF81
:101420005FEA170722BF12F1010211F101014FF02B
:10143000004143F1000300F0004043EA0000704720
:10144000F9D35708D0E746EA064613F1400F4FEAB2
:1014500016461FDD13F1200FDFBF16430A46002199
:1014600020335B42BED0C3F1200746EA064602FAAB
:1014700007F74FEA164646EA0706C3F1200722FAA5
:1014800003F201FA07F721FA03F14FF0000342EAF1
:101490000702A7E746EA020646EA06464FEA16466C
:1014A00046EA0106BCBF46EA0646360C4FF000038A
:1014B0004FF000024FF0000194E72DE9804C9A466E
:1014C000934670B491E8380007C831EA400C48BF31
:1014D00034EA430C03D5FFF7E6FDFFF780FFF0BCCD
:1014E000BDE8008C2DE9804C9A46934670B491E893
:1014F000380007C810F0804F08BF13F0804F03D1A9
:1015000000F005F8FFF76BFFF0BCBDE8008C20F0A1
:101510007F4780EA030023F07F4C07EB0C03A3F521
:101520007C5300F00040A3F1FE0392F0000F00F0A6
:10153000B38095F0000F00F077802DE901494FEA64
:1015400011404FEA144621EA004800FB06FC24EA59
:10155000064708FB06F607FB08F800FB07F718EB41
:1015600006484CEB164C4FEA124B18EB07484FEA73
:1015700015464CEB174022EA0B4E0BFB06FC25EA06
:1015800006470EFB06F607FB0EFE0BFB07F71EEBEE
:10159000064E4CEB164C4FF000061EEB074E4CEB84
:1015A000174B18EB0B0840F1000018EB0E0B58EB33
:1015B000000840F100008F1A4FF000013CBFC94302
:1015C000661B14BFB5EB040C00213CBFC943F61BDE
:1015D0004FEA17444EEA8E0E27EA04454FEA1C47AD
:1015E00004FB07622CEA074C05FB07F70CFB05F62A
:1015F00004FB0CFC16EB074642EB174216EB0C46BD
:1016000042EB1C421BEB060658EB0202414146EA44
:101610009E0601D5BDE80189B619524141EB010191
:10162000A3F10103BDE801894FEA14454FEA1147D0
:1016300024EA054621EA074C05FB07F406FB07F7F9
:101640000CFB06F105FB0CFC11EB074144EB1744C6
:101650004FEA124711EB0C4144EB1C4422EA074CC1
:1016600005FB07F206FB07F70CFB06F605FB0CFC77
:1016700016EB074642EB174216EB0C4642EB1C45B5
:101680006A1854F1000148BF7047B619524141EB46
:101690000101A3F10103704795F0000F37D04FEA25
:1016A00011424FEA144721EA024624EA074C02FBA2
:1016B00007F106FB07F70CFB06F402FB0CFC14EB2E
:1016C000074441EB17414FEA154714EB0C4441EB3B
:1016D0001C4125EA074C02FB07F506FB07F70CFB4C
:1016E00006F602FB0CFC16EB074645EB174516EB1E
:1016F0000C4645EB1C42121951F1000148BF7047DE
:10170000B619524141EB0101A3F1010370474FEAC1
:1017100014454FEA114724EA054621EA074C05FB28
:1017200007F106FB07F70CFB06F24FF0000605FB7E
:101730000CFC12EB074241EB174112EB0C4251EB50
:101740001C4148BF7047921841EB0101A3F101030E
:10175000704700002DED0A8BF2EE049A364C9FED97
:10176000378ADFED378A9FED37AA9FED37BA9FEDB5
:10177000379ADFED37BA9FED37CADFED37AA374D1D
:10178000374E09F0F7FA226801213648904722685F
:1017900002213548904703F019FE08F0FFF800F0E9
:1017A00055FDF0EE682AB0EE482AF7EE081AB0EEC2
:1017B0004A1AF3EE040AB0EE4B0A2C4804F040FB40
:1017C000F0EE692AB0EE492AF0EE6B1AB0EE4C1A30
:1017D000F0EE4A0AB0EE6A0A254804F031FBF0EE5A
:1017E000682AB0EE482AF7EE081AB0EE6A1AF3EE4D
:1017F000040AB0EE4B0A1F4804F022FBF0EE692AFF
:10180000B0EE492AF0EE6B1AB0EE4C1AF0EE4A0A2E
:10181000B0EE6A0A184804F013FB00F0F7FA174814
:1018200003F078FB04F01EF968688047F06A09F05D
:10183000EFFB09F0BFFAA4E7840300200060EA464A
:1018400000409C45CDCC4C3E00000C4300409C47E2
:101850008FC2F53C77CCAB32CDCC4C3F4803002057
:1018600000000020A40B0020CC0B002058210020F9
:10187000A4210020F02100203C2200208C0D00201B
:101880008AB0084C6D464FF0FF3707AE3A466946BE
:10189000206809F07BFF09AB3246291D009800F053
:1018A0009BFDF3E7080000202DE9F04FDDE90BC8B0
:1018B000DDE90EABDDF83490DDE90967002404E0D2
:1018C000C4F1020E00F80E50641C032C02DA0D5D08
:1018D000002DF5D110F8031F21F03801203162F3FB
:1018E00002010170018863F389110180417866F378
:1018F00085014170818868F309018180B0F8051085
:1019000069F38C01A0F80510C1886AF34F11C180FA
:10191000B0F8011067F38E11A0F8011041886CF344
:10192000CF114180B0F809106BF38C01A0F80910B9
:101930004289109961F34F124281BDE8F08F000097
:101940003EB50020019002901D49C889020A8DF819
:1019500004208DF80500488B020A8DF806208DF8CA
:1019600007001848DFED180AD0F8760000EE100ADC
:1019700020EE200ABDEEC00A10EE100A020A8DF811
:1019800008208DF809004A7D9DF80A0002F0010246
:1019900010438DF80A00097F9DF80B0001F001014A
:1019A00040EA41008DF80B0001A80090074840F282
:1019B0000F1300224468074805490068A0473EBD50
:1019C0002C1000204C14002000007A4484030020D6
:1019D000CC0B0020080000200FB49DF81D009DF8DE
:1019E0001C1040EA012000B2404200EE100AF8EE5E
:1019F000C00A9DF81F009DF81E1040EA012000B2A9
:101A000000EE100AB8EEC01A9DF821009DF82010D3
:101A100040EA012000B200EE100AF8EEC01A9DF86C
:101A200023009DF8221040EA012000B2404200EE5F
:101A3000100A0F49B8EEC00A81ED020A0D48C0ED48
:101A4000000A80ED011ADFED0C0A81EEA01A80ED8C
:101A5000021A887C002808D108489FED091AD0EDA9
:101A6000020A40EE410AC0ED020A04B070470000CD
:101A70002C1000203C230020000048C31823002025
:101A80008FC2753D0FB49DF81D009DF81C1040EAF3
:101A9000012000B200EE100AB8EEC00A9DF81E0048
:101AA0001B49400848749DF81F0000F001020A75A8
:101AB000C0F340028A74C0F38003CB74C0F3C0004B
:101AC00008749DF821009DF8203040EA0320114B56
:101AD00098801148002A15D0B5EEC00A0F4AF1EEE1
:101AE00010FA01D192ED020AD1ED020A9FED0C1A13
:101AF00060EE810AC0ED000A30EE200A82ED020A93
:101B000004B070479FED070A80ED000AF8E7000077
:101B10002C10002038210020400000201823002035
:101B20008FC2F5BC00000000FEE70000014800F095
:101B3000D7BD0000A40B0020014800F0D1BD00007B
:101B4000A40B0020014800F0CBBD0000CC0B00200E
:101B5000014800F0C5BD0000CC0B002010B50B46BD
:101B6000002101614161416281610122C261026221
:101B7000016041608160C1600146184600F09EFC32
:101B8000002803D0BDE8104000F06EBB10BD00007F
:101B900010B50446491EC8B200EB400101EB00102D
:101BA000074901EB80002146FFF7D8FF204601F0EE
:101BB00034F82046BDE81040022100F0FBBB0000D5
:101BC000CC17002010B58AB00C9C0191002A12D0CD
:101BD0000393049200210591082206928DF81C10AF
:101BE000216808916168099100231A4601A909F04A
:101BF000BBFC0AB010BD0293EBE700008EB01B4E99
:101C00004FF0FF3809AF424605A9306809F0BEFD24
:101C1000059CA4F2012003280BD8142239466846FB
:101C2000FEF746FD124806A90EC905682046A847DA
:101C3000E9E7B4F5027F0DD0512CE4D114223946E6
:101C40006846FEF735FD0B4806A90EC945682046D3
:101C5000A847D8E7142239466846FEF729FD06480A
:101C600006A90EC945682046A847CCE70000002019
:101C7000D003002004040020DC0300208EB01D4FA0
:101C80001D4E4FF0FF390DF124084A4605A938686A
:101C900009F07CFD059CA4F2052003280BD8142232
:101CA00041466846FEF704FD144806A90EC90568BA
:101CB0002046A847E9E7A4F580710F390ED0A4F5B6
:101CC00080711F39E1D1142241466846FEF7F0FCCD
:101CD00006A975680EC92046A847D6E714224146D2
:101CE0006846FEF7E5FC06A935680EC92046A847F8
:101CF000CBE700000400002034000020D0030020C7
:101D00002DE9F05F0CAFDDE90AC897E8800E109D61
:101D10000446002004E0C0F1020E04F80E60401CEE
:101D2000032802DA0E5C002EF5D114F8030F40F000
:101D3000380062F302002070208863F3891020804D
:101D400060786CF385006070B4F8010068F38E1061
:101D5000A4F80100608867F3CF106080A08869F361
:101D60000900A080B4F805006AF38C00A4F805000F
:101D7000E0886BF34F10E080E41E1E2104F10F0099
:101D8000FEF7C8FC002004E0221815F8011BD173EF
:101D9000401CB842F8D3BDE8F09F2DE9F047DDE9DB
:101DA0000AC8DDE90867DDF83090002404E0C4F1DA
:101DB000020A00F80A50641C032C02DA0D5D002DA3
:101DC000F5D110F8031F21F03801103162F3020140
:101DD0000170018863F389110180417866F3850100
:101DE0004170818867F309018180B0F805106CF3B8
:101DF0008C01A0F80510C18868F34F11C1800189DA
:101E000069F309010181BDE8F087000010B51A48A7
:101E10009FED1A1A90ED020A1948C0EE010A0088D7
:101E20009FED181A00EE100A1748B8EE400A00EEAF
:101E3000810A80ED020AF2EE040AB7EE000A903839
:101E400003F0C4FEF2EE040AB7EE000A0F4803F0F6
:101E5000BDFE0D48F1EE080AB7EE000A603803F047
:101E6000B5FE0948BDE81040F1EE080AB7EE000AD9
:101E7000303803F0ABBE0000901900200000B443DE
:101E8000142100200000004618230020FC0F002031
:101E9000FEB526480024264E007C01281ED0B07FC7
:101EA00001281CD12348806880470194029430881F
:101EB00000EE100A1F480838B8EE400AD0ED000ABC
:101EC00030EE200A80ED010A10EE100ADFED1A0A4A
:101ED000B0F18B4F04DD30EE600A08E03484FEBDC3
:101EE00010EE100A10F16A5F01D930EE200ADFED22
:101EF000130A20EE200ADFED120A20EE200A08F075
:101F0000D7FE01AD0095B6F91C000E490346024606
:101F10000C680146A0470C48009540F2FF13446846
:101F20000B48002209490068A047FEBD2C10002084
:101F300014210020F40300200000004600000039B6
:101F40000000B4C3DC03002084030020A40B0020A5
:101F50000800002070B52DED028B4C4C218CDFED7C
:101F60004C1A4C4D20460288D5ED020A4A489FED96
:101F70004B1A1E2909D880EEA12A00EE102AB8EECD
:101F8000400A02EE010A80ED020A4FF08C4303E0A2
:101F900030EE410A80ED020A90ED020A10EE101AAE
:101FA0009942F5DC4FF0464603E030EE010A80ED41
:101FB000020A90ED020A10EE101AB142F5D880EE36
:101FC000A12A62EE010A01EE902AF8EE611A71EE82
:101FD000A00A10EE900A984202DD70EEC10A05E0F8
:101FE00010EE900AB04201D970EE810A2C48BDEE85
:101FF000E01A11EE101AC18195ED051ADFED291ACC
:1020000021EE218A807C9FED281A00B301281BD184
:102010002148DC3803F020FE30EE480A84ED050A42
:1020200094ED010A1C48B8EEC00A603803F0E6FDE2
:10203000F0EE400A94ED050A1C4803F077FEBDEE71
:10204000C00A10EE100AA083BDEC028B70BD1748C9
:102050004C3803F001FE30EE480A84ED050A94ED99
:10206000010A0D48B8EEC00A303803F0C7FDF0EEA3
:10207000400A0E4894ED050A983803F057FEBDEE6D
:10208000C00A10EE100AA083DEE700001421002031
:102090000000B443901900201823002000000046DF
:1020A0002C100020610BB64100F8FF45F021002004
:1020B00010B52DED048B002444EA036343EA024289
:1020C00042EA01210143002901DA641E00E00124F3
:1020D000C1F3C7507F38C1F3160100EE101A9FED0F
:1020E000151AF8EE400A80EE810AF7EE000A30EE8B
:1020F000209A0AF020F941EC110B9FED0F0B06F02E
:102100009BF8B0EE408A00EE104AF0EE608AB8EE1E
:10211000C00A20EE090A10EE100A0AF069FC53EC1E
:10212000182B0AF06FF909F063FE00EE100ABDECFF
:10213000048B10BDFEFFFF4A0000000000000040BD
:10214000014800F0F7BD0000940E0020014800F0A7
:10215000F1BD0000F40E0020014800F0EBBD0000CE
:10216000D40D0020014800F0E5BD0000540F002010
:10217000014800F0DFBD0000340E00200168CAB243
:10218000103A1823B2FBF3F2064B9B5CC3656FF366
:102190000901032A02D9091D816500E08165806D6E
:1021A00070470000F0CF000810B5014600208A6A91
:1021B0008B694FF0C074002B0ED0B3F5005F1AD0BE
:1021C00062B3012A2AD0022A28D0032A03D1C96A7D
:1021D000C90100D5012010BD1AB1012A06D0022A7A
:1021E000F9D1C96AC901F6D5012010BDC96AA14259
:1021F000FBD1012010BD52B1012A0AD0022A06D01B
:10220000032AF7D1C96AA142F4D1012010BD0120EF
:1022100010BDC96AC901FBD5012010BD012010BD48
:1022200030B50468256825F480252560046863605E
:102230008368402B04D0036899600068C26030BD99
:1022400003689A600068C16030BD00001222024934
:10225000024802F0B0BA0000221A0020440D00200B
:102260007047012000F004BF72B6FEE72DE9F04F81
:10227000DDE90BC8DDE90D9ADDE90967002404E01A
:10228000C4F1020B00F80B50641C032C02DA0D5D44
:10229000002DF5D110F8031F21F03801283162F329
:1022A00002010170018863F389110180417866F3AE
:1022B00085014170818868F309018180B0F80510BB
:1022C00069F38C01A0F80510C1886AF34F11C18031
:1022D000B0F8011067F38E11A0F8011041886CF37B
:1022E000CF114180DFED0C0A20EE200ABDEEC00ABE
:1022F00010EE101A028961F309020281B0F8092078
:102300008B0A63F38C02A0F809204A0D418962F31D
:102310004F114181BDE8F08F00007A4410B50346AB
:102320001046002B01D0084C0AE04FF6FF7010BD9C
:1023300013F8012B4240D2B234F8122082EA102066
:10234000491E4A1CF4D110BD4801002010B50346B7
:102350001046002B01D0084C0AE04FF6FF7010BD6C
:1023600013F8012B4240D2B234F8122082EA102036
:10237000491E4A1CF4D110BDD8CD000810B5054C3B
:1023800003E010F8013B5340E25C491E4B1CF8D1BE
:10239000104610BD4800002010B5054C03E010F8B1
:1023A000013B5340E25C491E4B1CF8D1104610BD66
:1023B000D8CC000890F82020012A07D0022A05D0A6
:1023C000416A41F4802141620120704700684269FE
:1023D0000A43426100207047F0B590F8205004682D
:1023E000A468012D07D0022D05D0416A41F4802157
:1023F00041620120F0BD04F0806504F000663543C1
:1024000001D1E50053D5C4F301640125A5401D6049
:102410008B684FF4C0759BB1CE6805EB041733434E
:102420004E6843EAC6030668F3514FF4C273076867
:1024300003EB04130E69FE50097D012909D00DE05C
:102440000E88CB6805EB041743EA46530668F35140
:10245000EBE70168CE5846F48076CE501179D379F7
:10246000567941EA036193791B0443EA0623194331
:102470004FF4C676036806EB041699511178D378A9
:1024800041EA0361937852781B0443EA0222114324
:102490004FF4C473026803EB0413D150006805EBDA
:1024A0000411425842F0010242500020F0BD416A3E
:1024B00041F4001141620120F0BD000010B590F818
:1024C0002020012A07D0022A05D0416A41F4802148
:1024D0004162012010BD3C4800F50070026842F0E6
:1024E00001020260026822F47C52026002684B6AB8
:1024F00042EA032202600A7D02F01F0301229A4091
:10250000C3699343C361A0F50070CB69B3B9D0F838
:102510000C329343C0F80C328C894B6864F31F4330
:102520004C6900EBC404C4F840320C890B6864F3B6
:102530001F434C6900EBC404C4F84432CB69012B3F
:1025400016D1D0F80C321343C0F80C320C884B680B
:1025500064F31F434C6900EBC404C4F840320C8997
:10256000CB6864F31F434C6900EBC404C4F84432E5
:102570008B697BB1D0F804321343C0F804320B6985
:1025800073B1D0F814321343C0F81432096A012928
:102590000CD010E0D0F804329343C0F80432EEE7D8
:1025A000D0F814329343C0F81432EFE7D0F81C127D
:1025B0001143C0F81C12D0F8001221F00101C0F83C
:1025C0000012002010BD000000640040704770B58C
:1025D00090F82040012C07D0022C05D0416A41F42C
:1025E00080214162012070BD21B104682469A407E3
:1025F0002AD003E00468E468A4071FD04FF4D8741D
:10260000056804EB01142D5905F0040595600DB320
:1026100005682D59ED08556005682C5904F0020431
:10262000D4604FF4DA74056804EB01142E5906F0F7
:102630000F06082E13D30825156114E0416A41F4F2
:1026400000114162012070BD416A41F400114162F4
:10265000012070BD05682D596D0D1560DCE72D5901
:1026600005F00F05156105682D59C5F3072595611E
:1026700005682C59240C54614FF4DC72046802EB99
:102680000112A4581C700468A458240A5C700468E1
:10269000A458240C9C700468A258120EDA704FF4EF
:1026A000DE72046802EB0112A4581C710468A4587D
:1026B000240A5C710468A458240C9C710468A25814
:1026C000120EDA7131B10068016941F02001016137
:1026D000002070BD0068C16841F02001C160F7E7CB
:1026E0002DE9F05F0546002428684669D0F804907B
:1026F0008768D0F80CA0D0F810B0D0F81880F10797
:1027000048D0F90714D001218160B80703D52846C5
:1027100000F0B0FA0CE0780702D54FF4006407E04F
:10272000380702D54FF4805402E0284600F0A1FAA1
:10273000F80516D529684FF480708860B80503D570
:10274000284600F099FA0CE0780502D544F40054CC
:1027500007E0380502D544F4804402E0284600F042
:102760008AFAF80316D529684FF480308860B803D8
:1027700003D5284600F082FA0CE0780302D544F431
:10278000004407E0380302D544F4803402E02846D0
:1027900000F073FA300707D55FEACA6004D544F445
:1027A000007429681020C86070074FF0080707D52B
:1027B0005FEA0A7004D52868C760284600F0C8F9A7
:1027C000B00706D52868C068800702D0284600F008
:1027D000C1F9700607D55FEACB6004D544F4806484
:1027E000296810200861B00607D55FEA0B7004D590
:1027F00028680761284600F00DFAF00606D528681B
:102800000069800702D0284600F005FAB00308D519
:102810005FEAC96005D5296810204860284600F0A5
:10282000FBF9F00307D55FEA097004D52868476013
:10283000284600F024FA300446D55FEA497040D5B6
:10284000F00504D55FEAC87001D044F00104B0057A
:1028500004D55FEA887001D544F00204700504D500
:102860005FEA487001D544F00404300529D518F01A
:10287000700F26D008F07000402815D006DC102814
:1028800009D020280AD0302816D10AE050280ED0CE
:10289000602811D10EE044F008040DE044F010046B
:1028A0000AE044F0200407E044F0400404E044F06F
:1028B000800401E044F480742868816921F070018B
:1028C0008161296804204860002C05D0686A204393
:1028D00068622846FFF77AFEBDE8F09F70B50446AF
:1028E000002C03D094F8200010B104E0012070BD4A
:1028F000204600F09DF82068016841F00101016068
:1029000000F0B2FC054605260CE000F0ADFC401BD3
:102910000A2807D9606A40F40030606284F82060B9
:10292000012070BD20684068C007EED020680168B3
:1029300021F00201016000F097FC05460CE000F078
:1029400093FC401B0A2807D9606A40F4003060629B
:1029500084F82060012070BD206840688007EED4B4
:10296000207E01283FD02068016821F080010160AD
:10297000607E01283DD02068016821F0400101609F
:10298000A07E01283BD02068016821F02001016071
:10299000E07E012839D02068016841F01001016013
:1029A000207F012837D02068016821F008010160EC
:1029B000607F012835D02068016821F004010160A2
:1029C000D4E902010843D4E90412114308436168C1
:1029D000491E08432168C86100206062012084F814
:1029E0002000002070BD2068016841F08001016076
:1029F000BEE72068016841F040010160C0E720683F
:102A0000016841F020010160C2E72068016821F0FF
:102A100010010160C4E72068016841F0080101600D
:102A2000C6E72068016841F004010160C8E70000C2
:102A30002DE9F04186B00446142101A8FDF78CFE73
:102A40003E4B3F4ADFF8F080186821683C4C032673
:102A50000227401C103200254FF0090C41452FD1B0
:102A60001860012807D1106840F0007010601068ED
:102A700000F000700090206840F00800206020689E
:102A800000F0080000900196029703950496CDF897
:102A900014C001A92B4800F0F7FA002205211320E9
:102AA00000F07AFC132000F069FC002205211420BC
:102AB00000F072FC142000F061FC06B0BDE8F0816B
:102AC000DFF884804145F8D1116841F080611160E0
:102AD000116801F0806100911860012807D1106829
:102AE00040F000701060106800F0007000902068E6
:102AF00040F002002060206800F00200009060209A
:102B00000190029703950496CDF814C001A90F48CF
:102B100000F0BAFA002205213F2000F03DFC3F20E2
:102B200000F02CFC00220521402000F035FC402064
:102B300000F024FCC1E700000064004030000020E9
:102B400030380240000C024000680040000402409F
:102B500070470000F8B5294B02680021284D9A42C1
:102B600001D1297001E0012129702978254C01EB60
:102B7000410202EB011104EB810202F1440328320D
:102B80000021FFF724FD287804F1980600EB4001AE
:102B900001EB001104EB810100EBC000283106EBD2
:102BA00080001C22FDF784FD287800EB400202EB38
:102BB000001204EB820200EBC00106EB8101936C72
:102BC000526CC1E9072388B10F4800236A460068A8
:102BD00008F07CFD0098002807D00C494FF0805089
:102BE0000860BFF34F8FBFF36F8FF8BD08483146C1
:102BF00000236A46006808F069FDEBE700640040C6
:102C0000BC030020CC1700200400002004ED00E0ED
:102C10000000002070477047704770B5044694F874
:102C20002000012805D0606A40F400206062012085
:102C300070BD022084F820002068016821F00101A5
:102C4000016000F011FB05460DE000F00DFB401B9C
:102C50000A2808D9606A40F400306062052084F8D0
:102C60002000012070BD20684068C007EDD160627F
:102C700070BD704770477047704770477047704726
:102C80002DE9F0410446A76D00F0EEFA054694F8F0
:102C900035000026022806D08020606584F8346064
:102CA0000120BDE8F0812068016821F01601016073
:102CB0002068416921F080014161206C08B9A06C55
:102CC00020B12068016821F00801016020680168D6
:102CD00021F0010101600BE000F0C6FA401B05285D
:102CE00006D9202034342062032060702670D8E793
:102CF00020680068C007EFD134343F2094F82810D2
:102D00008840B8600120607026700020C9E790F804
:102D10003510022903D0802141650120704705212B
:102D200080F835100068016821F001010160002081
:102D3000704700002DE9F84304464FF00009CDF834
:102D400000906F484FF416510068B0FBF1F7A56D85
:102D50002E6894F85C00082202FA00F1314210D08B
:102D60002068016849070CD5016821F00401016061
:102D700094F85C0002FA00F1A960606D40F0010077
:102D8000606594F85C104FF0010808FA01F03042D9
:102D900008D021684969090604D5A860606D40F033
:102DA0000200606594F85C1004208840304208D02E
:102DB00021680968890704D5A860606D40F00400A7
:102DC000606594F85C1010208840304220D0216863
:102DD000096809071CD5A8602068016849030CD55B
:102DE0000068000304D4216C91B1204688470FE0AD
:102DF000A16C69B1204688470AE00168C90503D47F
:102E0000016821F008010160216C09B12046884762
:102E100094F85C102020884030424CD0216809682A
:102E2000C90648D5A86094F8350005280BD020685D
:102E30000168490330D50068000328D4616C51B3A0
:102E40002046884737E02068016821F016010160BC
:102E50002068416921F080014161206C08B9A06CB3
:102E600020B12068016821F00801016094F85C102D
:102E70003F208840A86084F8358084F83490216D24
:102E800000293BD001B02046BDE8F0430847E16B84
:102E900009B1204688470EE00168C90507D40168DA
:102EA00021F01001016084F8358084F83490E16BE2
:102EB00009B120468847606D00281FD0606DC007AB
:102EC00014D0052084F835002068016821F0010144
:102ED00001600098401C0090B84203D82068006848
:102EE000C007F6D184F8358084F83490E16C00296D
:102EF00004D001B02046BDE8F0430847BDE8F883A0
:102F0000700400202DE9F041044600F0ADF90546BB
:102F10005CB1022084F83500002684F83460206813
:102F2000016821F0010101600DE00120BDE8F081A0
:102F300000F09AF9401B052805D920206065032080
:102F400084F83500F2E720680068C007F0D12168F6
:102F50000A6820480240D4E901031843D4E9033544
:102F60002B43184363691843A3691843E369184363
:102F7000236A18431043626A042A03D1D4E90B235D
:102F80001A43104308602068406920F00700656A12
:102F900029460543012704290DD1A06A0543E06AAB
:102FA00048B12046FFF700F928B14020606584F859
:102FB00035700120BAE7206845612046FFF7DEF84A
:102FC00094F85C203F2191408160666584F83570FB
:102FD0000020ABE73F8010F02DE9F04104460025CA
:102FE000A66D94F8340001280DD0012084F8340037
:102FF00094F835700020012F07D084F834000225A2
:103000002846BDE8F0810220FBE7022784F83570EE
:1030100060652046FFF704F994F85C103F20884073
:10302000B0602068016841F016010160206C20B199
:103030002068016841F0080101602068016841F0E2
:1030400001010160DCE7000070B5044600F00CF9F6
:103050000546601C02D004480078044400F004F9DE
:10306000401BA042FAD370BD7404002070470000DA
:1030700010B504490A68024202D00860FFF7F6FF63
:1030800010BD0000143C01402DE9F84F0022DFF88C
:103090009C914FF0010803274FF00F0C09F1040A2F
:1030A000A9F1040B08FA02F50B682B40AB426ED174
:1030B0000C7904F00304012C01D0022C15D1866890
:1030C000540007FA04FE26EA0E06D1F80CE00EFAC8
:1030D00004FE4EEA060EC0F808E04468AC430D79E1
:1030E000C5F300159540254345600C79E443A407DA
:1030F00008D0C568540007FA04F6B5438E68A640A8
:103100002E43C6600C7904F00304022C11D1D408BC
:1031100000EB8406356A5407E40E0CFA04FE25EA37
:103120000E05D1F810E00EFA04FE4EEA050EC6F8C0
:1031300020E00568540007FA04F6B5430E7906F05E
:103140000306A6402E4306604C6814F4403F67D047
:10315000374C256845F480452560246804F4804494
:103160000094344C22F003052E19D6F80858940721
:103170004FEA147E0CFA0EF4A5432F4CA04201D165
:10318000002424E02D4CA04202D101241FE047E09E
:103190002B4CA04201D1022419E02A4CA04201D1BB
:1031A000032414E0284CA04201D104240FE0274C52
:1031B000A04201D105240AE0254CA04201D10624F9
:1031C00005E0244CA04201D1072400E0082404FAC1
:1031D0000EF42C43C6F80848D9F800409C434D68CB
:1031E000ED0200D51C43C9F80040DAF800409C43CA
:1031F0004D68AD0200D51C43CAF80040DBF8004022
:103200009C434D68AD0300D51C43CBF80040074DEF
:10321000083D2C689C434E68F60300D51C432C6087
:10322000521C102AFFF43EAFBDE8F88F083C014065
:1032300044380240003001400000024000040240D7
:1032400000080240000C024000100240001402403E
:1032500000180240001C0240002A01D08161704722
:1032600009048161704700000148806870470000D0
:10327000740400200248816802781144816070471C
:103280007404002010B50B48016841F4007101601E
:10329000016841F480610160016841F4807101605E
:1032A000032000F099F8052000F006F800F04AF835
:1032B000002010BD003C024030B587B00546002418
:1032C0001B48016841F001010160006800F0010045
:1032D000009001A902A800F0DBF900F00DFA40000F
:1032E0001449B0FBF1F1491E1448134A026040F240
:1032F000E732C260416004618460846100F034FFA1
:10330000044694B90D4800F0B7FF04466CB9192083
:1033100000F034F8102D07D200222946192000F0C1
:103320003BF80748056000E0012407B0204630BDA7
:103330004438024040420F0000000140B40F00201A
:103340007804002082B00C48016841F4804101609B
:10335000006800F4804001900748001F016841F0B8
:1033600080510160006800F08050019000220F2120
:10337000901E02B000F010B844380240002809DB6B
:1033800000F01F02012191404009800000F1E0207F
:10339000C0F8001170470000F0B40D460D4B1B68DB
:1033A000C3F30223C3F10704042C00D90424191D1C
:1033B000072901D2002300E0DB1E012606FA04F1F2
:1033C000491E294099409E40761E16403143F0BC6C
:1033D00004F0B2BE0CED00E000F00701054A1068F1
:1033E0004FF6FF03184040EA0120034908431060EC
:1033F000704700000CED00E00000FA052DE9F843ED
:1034000004464FF0010820684FF00007C10701D1C2
:1034100040072BD5DFF81891C9F86870FFF724FF33
:103420000646444D07E0FFF71FFF801B022802D924
:103430000320BDE8F88328680001F4D46068217A8D
:10344000800140EA01703B4984310860C9F8688016
:10345000FFF70AFF064606E0FFF706FF801B02287B
:1034600001D90320E5E728680001F5D52078800719
:1034700053D530484030016841F080510160006808
:1034800000F0805000902C4D286840F48070286037
:10349000FFF7EAFE064606E0FFF7E6FE801B02287D
:1034A00001D90320C5E72868C005F5D5214D703541
:1034B000286800F44070F8B1A18901F4407181429C
:1034C0001AD0286820F440701C49C1F800800F60B1
:1034D00028602868C0070FD0FFF7C6FE064641F2F5
:1034E000883706E0FFF7C0FE801BB84201D90320F1
:1034F0009FE728688007F5D5E0680E49C0F30122F0
:103500000831032A0BD0086820F4F81008602868F6
:10351000A189C1F30B0108432860002089E70A68EC
:10352000074B22F4F812184002430A60EFE700004C
:10353000000047420038024000700040400E474201
:10354000FFFCFF0F2DE9F04704460D46002C13D079
:10355000DFF82891D9F80000EFB200F00700A84288
:103560000CD289F80070D9F8000000F00700A842DA
:1035700004D00120BDE8F0870120FBE72068404E21
:10358000810712D5400703D5306840F4E050306021
:103590002078000703D5306840F460403060306820
:1035A000A16820F0F000084330602078C00731D0D7
:1035B000334960680839012808D002280BD0032855
:1035C00009D0096889070BD40120D3E7096889036A
:1035D00006D40120CEE70968890101D40120C9E79A
:1035E000316821F0030101433160FFF73DFE804661
:1035F00041F2883A07E0FFF737FEA0EB080050459C
:1036000001D90320B6E73068616800F00C00B0EB28
:10361000810FF0D1D9F8000000F00700A84209D9C5
:1036200089F80070D9F8000000F00700A84201D026
:1036300001209FE72078400705D53068E16820F435
:10364000E050084330602078000706D530682169D3
:1036500020F4604040EAC100306000F05DF831685D
:10366000084AC1F30311515CC84007490860074884
:103670000068FFF721FE00207CE70000003C0240CC
:1036800008380240D8CF00087004002078040020D9
:103690000F2202600B4A136803F0030343601368B0
:1036A00003F0F0038360136803F4E053C36012680F
:1036B00002F46042D20802610348006800F007008B
:1036C0000860704708380240003C0240014800682A
:1036D000704700007004002000B5FFF7F7FF0449B1
:1036E0000968044AC1F38221515CC84000BD000052
:1036F00008380240E8CF000800B5FFF7E7FF0449AB
:103700000968044AC1F34231515CC84000BD000061
:1037100008380240E8CF000810B51748006810F0DC
:103720000C01164816D0164B042912D0082911D1C5
:10373000114C241F216801F03F02216849020AD57B
:103740002068C0F38810A0FB03010023FCF71CFED7
:1037500009E0184610BD21680023C1F38811A1FBC0
:103760000001FCF711FE2168C1F30141491C490029
:10377000B0FBF1F010BD0000083802400024F40056
:10378000001BB7002DE9F84F0446002C13D0207819
:10379000DFF8A083C007A8F1040556D008F10400A3
:1037A0000168C1F3810101290CD00068C0F38100D8
:1037B000022803D00DE00120BDE8F88FD8F8000002
:1037C000400206D5286880033FD5606870BB0120A1
:1037D000F2E76068B0F5803F10D0B0F5A02F12D0AE
:1037E000286820F480302860286820F48020286031
:1037F0006068E0B1FFF738FD064614E0286840F441
:1038000080302860F4E7286840F480202860286829
:1038100040F480302860EBE7FFF726FD801B64282A
:1038200001D90320C8E728688003F5D50DE0FFF72C
:103830001BFD064606E0FFF717FD801B642801D933
:103840000320B9E728688003F5D42078BA4F8007B1
:103850004FF0000948D5B748001D016811F00C0F62
:1038600008D00068C0F38100022813D1D8F8000006
:1038700040020FD42868800704D5E068012801D0F1
:10388000012099E72868216920F0F80040EAC1008A
:10389000286029E0E068B8B101203860FFF7E4FC57
:1038A000064606E0FFF7E0FC801B022801D9032052
:1038B00082E728688007F5D52868216920F0F8009C
:1038C00040EAC10028600FE0C7F80090FFF7CCFC89
:1038D000064606E0FFF7C8FC801B022801D903203A
:1038E0006AE728688007F5D42078000729D5DFF833
:1038F00044A2924861690AF1700A89B1012101600C
:10390000FFF7B2FC064606E0FFF7AEFC801B02287C
:1039100001D9032050E7DAF800008007F4D510E061
:10392000C0F80090FFF7A0FC064606E0FFF79CFCFD
:10393000801B022801D903203EE7DAF80000800747
:10394000F4D42078400778D54FF0000A79483C300D
:103950000068C0000BD477483C30016841F08051CA
:103960000160006800F0805000904FF0010ADFF81D
:10397000D0B1DBF80000C00514D4DBF8000040F43F
:103980008070CBF80000FFF76FFC064606E0FFF7FB
:103990006BFC801B022801D903200DE7DBF8000037
:1039A000C005F4D5634EA0686C3601280FD00528F9
:1039B00012D0306820F001003060306820F0040040
:1039C0003060A068F8B1FFF74FFC834617E030681D
:1039D00040F001003060F4E7306840F004003060EF
:1039E000306840F001003060EBE7FFF73DFCA0EBF2
:1039F0000B0141F28830814201D90320DCE63068B6
:103A00008007F2D510E0FFF72FFC834609E0FFF7AF
:103A10002BFCA0EB0B0141F28830814201D903203D
:103A2000CAE630688007F2D4BAF1010F05D14148E7
:103A30003C30016821F080510160A069C0B33D496C
:103A4000091D09684FF0FF36C1F38101022946D0F4
:103A5000022805D0C7F86090FFF706FC04463AE05C
:103A6000C7F86090FFF700FC814607E0FFF7FCFB1A
:103A7000A0EB0900022801D903209DE628688001F7
:103A8000F4D4D4E907010843616AA26A890106EB0C
:103A9000520241EA0241084394F82C1040EA0160C6
:103AA000C8F8000001203866FFF7DEFB044607E097
:103AB0003DE0FFF7D9FB001B022801D903207BE67C
:103AC00028688001F5D532E0FFF7CEFB001B022805
:103AD00001D9032070E628688001F5D427E0012889
:103AE00023D0D8F80000E26900F4800191421AD195
:103AF000226A00F03F01914215D147F6C071626A17
:103B00000140B1EB821F0ED1A26A00F4403106EBF6
:103B10005202B1EB024F06D194F82C1000F0706005
:103B2000B0EB016F03D0012046E6012044E60020FF
:103B300042E600000438024000004742800E47423F
:103B40000070004010B50446002C02D0607F10B118
:103B500006E0012010BD00202077204600F042F84A
:103B6000022060772068C168C943C90631D5CA21DF
:103B70004162216853204862204602F058FAC8B9D1
:103B800020688168164A11408160206881686268F7
:103B90001143D4E904231A43114381602168E0688A
:103BA000086120680169228941EA024101612046D9
:103BB00002F060FA48B921680A6C22F480220A6493
:103BC00021680A6CA3691A430A642268FF215162C2
:103BD00000E000200028BDD10121617710BD000068
:103BE000BFFF8FFF1FB5002100910191029103914A
:103BF0000068084988420CD102200090000203901E
:103C00006846FFF7FBFB08B1FEF72EFB02490120D7
:103C100008601FBD002800403C0E474270B50446B6
:103C20000B46207F012805D00126267702206077E9
:103C300012B108E0022070BD5878C10603D500F02B
:103C4000EF000A305870A2B19878D97840EA01455F
:103C500058781978000240EA413005432168CA20AB
:103C60004862216853204862204602F0E0F988B19A
:103C700017E0D87802F0D0F90204587802F0CCF9B5
:103C800042EA0022987802F0C7F90243187842EA23
:103C90004035E3E70748054020684560204602F0CC
:103CA000E9F900B966772268FF2151620021217786
:103CB00070BD00003FFFFF002DE9F04104460D46B6
:103CC000207F012821D04FF0010884F81C800220B9
:103CD00060770027E2B120688068400600D4EF706A
:103CE000A878297840EA01466878E978000240EA35
:103CF000815006432168CA204862216853204862E7
:103D0000204602F094F9C8B12BE00220BDE8F08112
:103D100020688068400600D4EF70287802F07CF9B3
:103D20000204687802F078F942EA0022A87802F0EA
:103D300073F90243E87842EA8056DBE70D48064013
:103D4000206806602068816821F480218160D5E9BF
:103D5000031001432068826811438160204602F00D
:103D600089F908B984F81D802268FF2151622777FC
:103D7000CCE700007F7F7F0070B505460A482968C0
:103D8000C860FFF771FA04464FF47A7606E0FFF751
:103D90006BFA001BB04201D9032070BD2868C068CF
:103DA0008006F4D5002070BD5F7F010070B5044629
:103DB000002C09D0606A002540B125616561A562CB
:103DC00094F8510040B10CE0012070BD6068B0F57E
:103DD000827FF4D0E561F2E784F85050204600F08D
:103DE00045F8022084F851002068016821F0400164
:103DF0000160A088218900F4827001F40441084325
:103E0000A18901F400610843217C01F0020108430B
:103E1000217D01F001010843218B01F40071084369
:103E2000217F01F03801084394F8201001F080014F
:103E30000843218D01F40051084321680860A069FE
:103E4000042101EA104094F8241001F01001084305
:103E5000216848602068C16921F40061C16165651D
:103E6000012084F85100002070BD000010B586B01C
:103E70000446142101A8FCF76FFC1449206888420D
:103E800021D100211248026842F480420260006899
:103E900000F4804000900E481038026842F00202A0
:103EA0000260006800F0020000904FF46040019052
:103EB000022002900391032004900520059001A99F
:103EC0000448FFF7E1F806B010BD000000380040DC
:103ED00040380240000402402DE9FF4F81B0044603
:103EE0000E9E93461F460125FFF7BEF9804694F8C3
:103EF0005100616801280AD0B1F5827F03D1A16821
:103F000009B9042803D0022005B0BDE8F08F02985B
:103F1000A0B3BBF1000F32D0380030D094F850007D
:103F200001282ED04FF0010A84F850A094F85100D7
:103F3000042802D0052084F851004FF00009C4F88D
:103F40005490C4F838B0E787A78702982063E786C3
:103F5000A786C4F84090C4F84490206801684906D8
:103F600003D4016841F040010160E068B0F5006FE2
:103F700009D06068F0B3012F4DD082E0FFE7012047
:103F8000C2E70220C0E7606808B1012F3CD1206B76
:103F900021680088C860206B801C2063E08E401E72
:103FA000E08631E02068816889070DD5E18E59B13E
:103FB000012D09D1216B0988C160206B801C206311
:103FC000E08E401EE086002520688168C9070BD07E
:103FD000E18F49B1C068A16B0880A06B801CA06311
:103FE000E08F401EE0870125FFF73EF9A0EB0800B7
:103FF000B04200E00FE007D3701C05D084F851A058
:1040000084F8509003207FE7E08E0028CAD1E08F2B
:104010000028C7D13BE0206B216800780873206B33
:10402000401C2063E08E401EE0862AE02068816804
:1040300089070DD5E18E59B1012D09D1216B097880
:104040000173206B401C2063E08E401EE08600253B
:1040500020688168C9070BD0E18F49B1C068A16BA6
:104060000870A06B401CA063E08F401EE087012514
:10407000FFF7FAF8A0EB0800B04201D3701C12D190
:104080008EB1E08E0028D1D1E08F0028CED14246FB
:104090003146204602F01CF958B12020606584F8B2
:1040A0005090012030E784F851A084F8509003200C
:1040B0002AE7A06818B92068C1688068009084F871
:1040C00051A084F85090606D08B101201CE70020D9
:1040D0001AE770477047000070B590F83C20012A3D
:1040E00031D0012680F83C60022280F83D20026831
:1040F0005468936824F070050C682C435460134C8A
:104100000268A24214D0B2F1804F11D0104CA242EA
:104110000ED0104CA2420BD00F4CA24208D00F4C34
:10412000A24205D00E4CA24202D00E4CA24204D1B3
:1041300023F080034968194391603C3046700021A8
:104140000170002070BD022070BD00000000014021
:104150000004004000080040000C00400004014042
:10416000004001400018004010B50446002C03D068
:1041700094F83D0010B107E0012010BD002084F844
:104180003C00204600F016F8022084F83D00211D76
:10419000206802F0ABF901203D3460726070A070BD
:1041A000E07020716071A071E071207220700020B9
:1041B00010BD000008B500680C4A0D49904208D1B6
:1041C000086840F008000860086800F008000090E7
:1041D00008BD084A9042FBD1086840F01000086012
:1041E000086800F01000009008BD0000000C0040BE
:1041F000403802400010004090F83D10012901D0E5
:1042000001207047022180F83D1000681349884260
:1042100014D0B0F1804F11D0114988420ED011490D
:1042200088420BD01049884208D01049884205D0F6
:104230000F49884202D00F49884209D1816801F0B4
:104240000701062908D0016841F00101016003E07F
:10425000016841F001010160002070470000014049
:104260000004004000080040000C00400004014031
:10427000004001400018004090F83D10012901D095
:1042800001207047022180F83D100168CA6842F0A1
:104290000102CA6000681449884214D0B0F1804F0E
:1042A00011D0124988420ED0114988420BD01149D1
:1042B000884208D01049884205D01049884202D06F
:1042C0000F49884209D1816801F00701062908D009
:1042D000016841F00101016003E0016841F0010162
:1042E0000160002070470000000001400004004011
:1042F00000080040000C0040000401400040014064
:104300000018004070B50446002594F83C000128D0
:1043100017D0012684F83C60022084F83D00206814
:10432000826822F0770222F47F4282600868502877
:1043300038D00DDC202853D005DC90B3102811D1E3
:104340004EE0022070BD30284AD040280AD13DE01E
:10435000602831D070280CD0B0F5805F03D0B0F564
:10436000005F12D001253C34667000202070284682
:1043700070BDCB68D1E90121206802F032F92068D4
:10438000816841F077018160EDE7CB68D1E90121D7
:10439000206802F026F92068816841F4804181603C
:1043A000E1E71DE0CA684968206802F0FDF9502184
:1043B000206802F020F9D6E7CA684968206802F050
:1043C00004FA6021206802F016F9CCE7CA6849684F
:1043D000206802F0E9F94021206802F00CF9C2E7F8
:1043E00022680146104602F006F9BCE770472DE945
:1043F000F04104462068C56806694FF00007B10720
:1044000014D5A90712D5F91E016101202077206873
:104410008069800703D02046FFF7E8FF05E02046CB
:1044200000F0BCF8204600F04CF92777700717D54C
:10443000680715D521686FF0040008610220207715
:104440002068806910F4407F03D02046FFF7CEFF3C
:1044500005E0204600F0A2F8204600F032F9277768
:10446000300716D5280714D521686FF008000861B9
:10447000042020772068C069800703D02046FFF71A
:10448000B5FF05E0204600F089F8204600F019F954
:104490002777F00617D5E80615D521686FF01000CC
:1044A0000861082020772068C06910F4407F03D09D
:1044B0002046FFF79BFF05E0204600F06FF82046FE
:1044C00000F0FFF82777F00708D0E80706D021684A
:1044D0006FF001000861204600F062F9300608D54F
:1044E000280606D521686FF0800008612046FFF796
:1044F000F0FD700608D5680606D521686FF040000B
:104500000861204600F056F9B0060AD5A80608D57D
:1045100021686FF0200008612046BDE8F041FFF7F8
:10452000D9BDBDE8F081000010B586B00446142165
:1045300001A8FCF711F915492068884224D11448D4
:10454000016841F080010160006800F08000009087
:104550004FF4E05001900220029001210391049059
:10456000059001A90B48FEF78FFD0B48FFF744FEAD
:104570000021094800F0A6F80421074800F0A2F83D
:104580000821054800F09EF806B010BD000C004060
:1045900030380240001C02406C0C0020704770B59F
:1045A00004460D46002694F83C0001280FD0012057
:1045B00084F83C006AB1042A1FD0082A32D00C2AA1
:1045C00044D00126002084F83C00304670BD022013
:1045D00070BD2946206802F017F82068816941F013
:1045E000080181612068816921F0040181612068EE
:1045F00081692A6911438161E4E72946206802F054
:1046000037F82068816941F400618161206881691F
:1046100021F480618161206881692A6941EA02216F
:104620008161CFE72946206802F05CF82068C16903
:1046300041F00801C1612068C16921F00401C16134
:104640002068C1692A691143C161BBE72946206816
:1046500002F080F82068C16941F40061C1612068FE
:10466000C16921F48061C1612068C1692A6941EA98
:104670000221C161A6E710B50446002C03D094F8CE
:104680003D0010B107E0012010BD002084F83C007F
:10469000204600F015F8022084F83D00211D206816
:1046A00001F024FF01203D3460726070A070E07062
:1046B00020716071A071E07120722070002010BD27
:1046C0007047704710B50446002909D004290AD064
:1046D00008290BD094F8410001280AD0012010BD10
:1046E00094F83E00F8E794F83F00F5E794F84000AE
:1046F000F2E70220A9B3042937D0082938D084F87A
:1047000041000122206801F05FFF1E4920681E4A17
:10471000884201D0904203D1436C43F40043436488
:104720002068884213D0B0F1804F10D017498842DA
:104730000DD0174988420AD01649884207D09042C6
:1047400005D01549884202D01449884213D18168A6
:1047500001F00701062912D0016841F00101016052
:104760000DE0FFE784F83E00CBE784F83F00C8E7A0
:1047700084F84000C5E7016841F0010101600020B4
:1047800010BD000000000140000401400004004092
:1047900000080040000C00400040014000180040AC
:1047A00000680349884201D1FEF764BD70470000EC
:1047B00000000140704738B5044694F842002028B4
:1047C00001D0022038BD51B14AB101202063002040
:1047D0006063204602F0E0F9014611B105E00120D6
:1047E00038BD206B012802D00121084638BD206861
:1047F00002684068009020680C3050E8002F42F0BA
:10480000100240E80023002BF5D1EEE710B5044676
:104810000E49206888420ED10D480178FC2905D147
:1048200090F83700FD2801D101F026F93822084917
:104830000848FFF7C0FF08492068884204D1BDE856
:104840001040064800F052BB10BD000000100140AF
:10485000A8190020FC0C0020001401408C0D002041
:1048600070470000F8B5044622681068D1685369A3
:1048700000F00F06002E08D1850606D58D0604D55A
:104880002046BDE8F84002F099B80025002E66D019
:1048900003F0010601F49077374360D0C20705D0DA
:1048A000CA0503D5626C42F001026264420705D575
:1048B000DA0703D0626C42F002026264820705D517
:1048C000DA0703D0626C42F004026264020707D583
:1048D00001F02002324303D0626C42F008026264AD
:1048E000626C002A31D0800604D5880602D52046A5
:1048F00002F064F820684069C0F38010616C090719
:1049000000D438B3204602F017F82068406940060A
:104910001CD52068143050E8001F21F0400140E809
:104920000012002AF5D1E06B60B159490165E06BD6
:10493000FEF7EDF9002808D0E06B016D01B0BDE88D
:10494000F04008472046FFF78BFFF8BD2046FFF7F1
:1049500087FFF8BD2046FFF783FF6564F8BD236B32
:10496000012B7DD1C3067BD5CB067FD5106850685F
:10497000009050694FF0200340064FF0020644D5E6
:10498000E16B0868406880B20028E7D0A28D8242BF
:10499000E4D9E085C869B0F5807F2DD020680C305F
:1049A00050E8001F21F4807140E80012002AF5D180
:1049B0002068143050E8001F21F0010140E8001287
:1049C000002AF5D12068143050E8001F21F0400182
:1049D00040E80012002AF5D184F8423025632068AF
:1049E0000C3050E8001F21F0100140E80012002AAE
:1049F000F5D1E06BFEF744F96663A08DE18D401AB6
:104A000081B22046FFF702FFF8BDA08DE18D401A6C
:104A100081B2E08D0028F7D00029F5D020680C3055
:104A200050E8002F22F4907240E80027002FF5D1C3
:104A30002068143050E8002F22F0010240E80027DF
:104A4000002FF5D184F84230256320680C3050E8FF
:104A5000002F22F0100240E80023002BF5D100E0E7
:104A600004E066632046FFF7D1FEF8BD020606D5D6
:104A70000A0604D52046BDE8F84002F0D7B8400643
:104A8000F3D54806F1D52046BDE8F84001F07BBFDC
:104A9000EF67000870B50446002C04D094F841007C
:104AA000002510B106E0012070BD84F8405020467A
:104AB00000F024F8242084F841002068C16821F423
:104AC0000051C160204601F0DDFF2068016921F43A
:104AD000904101612068416921F02A01416120680B
:104AE000C16841F40051C1606564202084F8410030
:104AF00084F842006563002070BD00002DE9F04F8E
:104B000087B00446142102A8FBF726FE8A48894B89
:104B10001438226888490225002706154FF003093A
:104B20004FF0070B4FF0006A4FF400389A4269D1FA
:104B30000A6842F010020A60096801F01001019150
:104B4000016841F002010160016801F00201019178
:104B5000016841F001010160006800F0010001906E
:104B60008020029003950497CDF81490CDF818B0EA
:104B700002A97248FEF788FA28020290039504976A
:104B8000CDF81490CDF818B002A96D48FEF77CFA64
:104B90006D4D6C482860C5F804A0AF60EF602E61D1
:104BA0006F61AF61EF61C5F820806F622846FEF744
:104BB000A9F908B1FDF758FBE563AC636148624DA4
:104BC000303060352860C5F804A04020A860EF6050
:104BD0002E616F61AF61EF61C5F820806F6228467A
:104BE000FEF790F908B1FDF73FFBA563AC63002227
:104BF00005212520FEF7D0FB2520FEF7BFFB07B0DF
:104C0000BDE8F08F514B9A4237D14B49091F0A68D2
:104C100042F480220A60096801F480210191016850
:104C200041F004010160006800F0040001904FF4BD
:104C30004060029003950497CDF81490CDF818B019
:104C400002A94348FEF720FA3F4D4248C03528608C
:104C5000C5F804A0AF60EF602E616F61AF61EF61D6
:104C60004FF4403028626F622846FEF74BF908B1D6
:104C7000FDF7FAFAE563AC63C1E7374B9A42BED160
:104C80000A6842F020020A60096801F020010191DF
:104C9000016841F040010160006800F040000190AF
:104CA0004FF48440029003950497CDF814900820A7
:104CB000069002A92948FEF7E7F92248284D6038F6
:104CC00028604FF02069C5F80490AF60EF602E6156
:104CD0006F61AF618015E861C5F820806F6228467A
:104CE000FEF710F908B1FDF7BFFAE563AC631548AC
:104CF0001B4D183060352860C5F804904020A8602E
:104D0000EF602E616F61AF61EF61C5F820806F6267
:104D10002846FEF7F7F808B1FDF7A6FAA563AC63DD
:104D2000002205214720FEF737FB4720FEF726FB30
:104D300065E70000001001404438024000040240D2
:104D40000000024088640240D40D0020004800406A
:104D50000008024028600240001401400018024090
:104D6000F40E002090F84230202B01D00220704732
:104D700021B11AB10023036301F00EBF0120704777
:104D800010B500680A49884210D10A480178FC2908
:104D900005D190F83700FD2801D100F06DFEBDE887
:104DA0001040382203490448FFF7DCBF10BD000063
:104DB00000100140A8190020FC0C002070470000E2
:104DC00037B5044694F84100202801D002203EBDAA
:104DD000019959B352B32162A284E2840020606435
:104DE000212384F84130A56B114BEB63A56B114B6C
:104DF0002B64A56B104BEB64A36B186520681346FE
:104E0000001DA56B02462846FEF7E6F821686FF004
:104E1000400008602068143050E8001F41F0800115
:104E200040E80012002AF5D100203EBD01203EBD21
:104E3000ED6800082F690008FF6700087047704799
:104E4000FEE700002748284990F84200012814D0C6
:104E5000652818D003281CD0672820D0042824D027
:104E6000682828D005282CD0692830D0072834D0CD
:104E70006B2801D14880888070470120488040F22B
:104E80000110888070476520488040F26510888056
:104E900070470320488040F20310888070476720E5
:104EA000488040F2671088807047042048804FF4A3
:104EB000827088807047682048804FF4B470888082
:104EC00070470520488040F20510888070476920AF
:104ED000488040F2691088807047072048808880A9
:104EE000704700004C1400207C03002070B505467C
:104EF000074800F017F84FF4806421460448FBF798
:104F00002BFC22462846BDE870400149FFF753BC00
:104F10004C1000204FF480620149FFF74CBC0000A8
:104F20004C1000202DE9F05F0446A046834D4FF061
:104F3000010B814E05F1800708F2F73AF7E020787F
:104F4000A52872D120686860207928720521204642
:104F500003F0C0F80128F4D1B5F80510093104EBCD
:104F6000010908F58060814570D8204603F092F869
:104F70000128E6D16079A17940EA01226A81E11D28
:104F800040F20623A2F206209A4274D01EDC40F2C0
:104F90000513A2F205109A4251D00EDC032A3ED02E
:104FA00004DC012A27D0022A32D135E0A2F5807232
:104FB000013A3BD0032A2BD13BE0FC2847D0FD2807
:104FC0005AD0FE2860D0FF2822D166E0052871D093
:104FD00008DC012875D002287CD003286DD0042875
:104FE00016D181E0062869D0072868D0082867D044
:104FF000FE280DD192E00868E860486828610889B9
:10500000A882887AA875287B000902D086F81CB08F
:105010008BE00020307788E00878E87585E0474825
:1050200020221830FBF7FFFA7FE07FE00868A863D2
:105030007BE00888A887887885F83E0075E00888B6
:10504000A5F83F00887885F841006EE072E03B48A3
:105050000D224230FBF7E7FA95F84200642802D2AD
:1050600086F815B003E002D94FF000007075B5F86E
:105070004400708359E019E030484FF0100200F10D
:105080004F00FBF7D0FA50E0086845F85F0F48681A
:1050900068608868A8605F3D47E0086845F86B0F66
:1050A0008888A8808879A8716B3D3EE0087885F8EB
:1050B00072003AE01DE004E00CE012E01FE022E0A4
:1050C00028E0086845F8730F8888A8808879A87157
:1050D000733D2AE00868C5F87A008888A5F87E0044
:1050E00023E00868386020E00868786088883881A4
:1050F0001BE0124828228A30FBF795FA15E0087861
:1051000087F8320011E00868C7F833008888A7F8EC
:1051100037000AE0087887F8390006E008480A688E
:1051200002604A684260896881604C46641C54454C
:10513000FFF405AFBDE8F09F2C1000204C140020B8
:10514000D91500202DE9F04FDDE90BC8DDE90D9AF6
:10515000DDE90967002404E0C4F1020B00F80B50FC
:10516000641C032C02DA0D5D002DF5D110F8031F2D
:1051700021F0380162F302010170018863F38911A3
:105180000180417866F385014170818867F30901E8
:105190008180B0F805106CF38C01A0F80510C1886F
:1051A00068F34F11C180B0F8091069F38C01A0F8C1
:1051B000091041896AF34F114181BDE8F08F0180E8
:1051C0000021818001724180C1800182416101839F
:1051D000418380F8201070470FB410B50298A0F2F8
:1051E00001209DF825109DF8242041EA022100EBC2
:1051F000C00202EB00121B4800EBC20041809DF888
:1052000027109DF8262041EA022181809DF829106F
:105210009DF8282041EA0221C1809DF82A100172E0
:105220004188028A104B8C1A9C4203DA018B491C7C
:10523000018305E0511A994202DA018B491E01836C
:105240004188B0F9182001EB423141614188018267
:10525000418C491C4184012180F8201010BC5DF86C
:1052600014FB0000D41A002090E8FFFF30B5039C27
:10527000050A25706070080AA070E170100A20719C
:105280006271180AA071E37130BD0188818100EE5E
:10529000101AB8EE400A80ED040A0021C18170475F
:1052A0000FB430B50398A0F502702A4A52F82010C6
:1052B0000B888B819DF829109DF8283041EA032145
:1052C00052F8203019809DF82B109DF82A3041EAC1
:1052D000032152F8203009B259609DF82D109DF835
:1052E0002C3041EA032152F82030198152F8203045
:1052F0009DF82E10997252F820100B888C891C1B77
:10530000154B9C4202DACC89641CCC8152F82010E7
:105310008C890D88641B9C4202DACB895B1ECB8191
:1053200052F820100B88B1F90E4003EB443300EE25
:10533000103AB8EEC00A81ED040A52F820100B8C26
:105340005B1C0B8452F820000121817730BC5DF892
:1053500014FB0000D80300209CE6FFFF816170472A
:1053600030B5039C050A25706070080AA070E170D2
:10537000100A20716271180AA071E37130BD3EB548
:105380000446002C18D00020029060684169A26891
:1053900091434161FF200090012301AA02A92068E6
:1053A000FEF79AFDBDF80400A08160684169A2681B
:1053B00011434161A0893EBD05203EBD01604260B0
:1053C00083600021818181827047000010B54FF415
:1053D00080530E4A0E490F48FFF7F0FF0E4C0D4860
:1053E000012322460A492830FFF7E8FF0948022333
:1053F000224607495030FFF7E1FF06488023BDE809
:105400001040064A02497830FFF7D8BF0004024036
:10541000140C0020341A0020001402400020024026
:1054200010B52248FFF7ABFF012004F007FF1F482B
:105430002830FFF7A4FF012004F000FF1B48503084
:10544000FFF79DFF012004F0F9FE18487830FFF7C0
:1054500096FF012004F0F2FE1448818900EE101A34
:10546000F8EE400A9FED120A80EE801A80ED041AD1
:10547000818E00EE901AF8EE600A80EE801A80EDC0
:105480000E1AB0F85C1000EE901AF8EE600A80EE8A
:10549000801A80ED181AB0F8841000EE901AF8EE19
:1054A000600A80EE801A80ED221A10BD341A0020A6
:1054B00000FF7F4710B50F480D490160032141608F
:1054C00000218160C1604FF4102202614FF400128C
:1054D0004261017641768176C17601774177FDF7A9
:1054E000FDF9002803D0BDE81040FCF7BDBE10BD9B
:1054F00000640040A40B002010B50F480D49016066
:105500000321416000218160C1604FF410220261DB
:105510004FF400124261017641768176C1760177BF
:105520004177FDF7DBF9002803D0BDE81040FCF718
:105530009BBE10BD00680040CC0B002008B51D4884
:10554000016841F480010160016801F4800100916B
:10555000016841F400110160006800F4001000903F
:10556000002205210C20FDF717FF0C20FDF706FF98
:10557000002205213920FDF70FFF3920FDF7FEFE3F
:10558000002205214420FDF707FF4420FDF7F6FE29
:10559000002205214520FDF7FFFE4520FDF7EEFE28
:1055A000002205214620FDF7F7FEBDE80840462011
:1055B000FDF7E4BE3038024010B5C0B0002224210F
:1055C000202005F033FF394C2060002224214020A8
:1055D00005F02CFF606000222421202005F026FF2A
:1055E000A0601C22324939A8FBF762F8002139A8D3
:1055F00004F031FEE0621C222D491C3132A8FBF779
:1056000057F8002132A804F026FEE0601C22284949
:1056100038312BA8FBF74CF800212BA804F01BFE17
:1056200020611C222249543124A8FBF741F80021B3
:1056300024A804F010FE60611C221D4970311DA8D1
:10564000FBF736F800211DA804F005FEE0611C22DE
:1056500017498C3116A8FBF72BF8002116A804F087
:10566000FAFD20621C221249A8310FA8FBF720F88E
:1056700000210FA804F0EFFD60621C220C49C43128
:1056800008A8FBF715F8002108A804F0E4FDA062C3
:105690001C220749E03101A8FBF70AF8002101A804
:1056A00004F0D9FDA06140B010BD00000000002052
:1056B000DCCB00082DE9F04387B0142102A8FBF7EA
:1056C0004BF800244248016841F002010160016882
:1056D00001F002010191016841F04001016001689F
:1056E00001F040010191016841F001010160016890
:1056F00001F001010191016841F0080101600168B8
:1057000001F008010191016841F0040101600168A4
:1057100001F004010191016841F4807101600168A8
:1057200001F480710191016841F02001016001687C
:1057300001F020010191016841F0800101600068E1
:1057400000F080000190234F002280213846FDF7B1
:1057500083FDDFF88480002203214046FDF77CFDB5
:10576000DFF87890BE14002231464846FDF774FDFC
:1057700080200290012503950494059402A93846DF
:10578000FDF782FC0320029003950494059402A97E
:105790004046FDF779FC02954FF404100390049500
:1057A00002A90F48FDF770FC029603950494059436
:1057B00002A94846FDF768FC062100220846FDF7CD
:1057C000EBFD0620FDF7DAFD07B0BDE8F083000031
:1057D0003038024000200240001402400004024021
:1057E0000018024010B586B0142101A8FAF7B4FFE2
:1057F000002400941A481949016044600321816023
:105800000721C160046144618461FEF79BF908B11E
:10581000FCF72AFD8DF804408DF805408DF8064010
:1058200004940594012201A90D48FEF745FA08B138
:10583000FCF71AFD01208DF800008DF801008DF8AD
:1058400002008DF80340012269460548FEF7E6F99B
:10585000002801D0FCF708FD06B010BD002800406C
:10586000F40B002010B511480F4901604FF482710C
:105870004160002181604FF40062C2600222026137
:1058800001224261520282613822C2610162416298
:1058900081620A21C162FEF789FA002803D0BDE8BF
:1058A0001040FCF7E1BC10BD00380040140C002093
:1058B00010B58EB000240A940B940C940D940894A7
:1058C00009941C2101A8FAF747FF264824490160E2
:1058D000446084604FF6FF71C16004618461FEF72B
:1058E00043FC08B1FCF7C0FC4FF480500A900AA9B1
:1058F0001C48FEF707FD08B1FCF7B6FC1948FEF797
:10590000BAFE08B1FCF7B0FC0894099408A9154840
:10591000FEF7E2FB08B1FCF7A7FC602001900294BF
:1059200003940594002201A90E48FEF738FE08B141
:10593000FCF79AFC042201A90A48FEF730FE08B1E0
:10594000FCF792FC082201A90648FEF728FE08B1E0
:10595000FCF78AFC0348FEF7E7FD0EB010BD00001F
:10596000000C00406C0C00201CB500240094019435
:105970000E480D4901605321416084604FF6FF716C
:10598000C16080218161FEF7EFFB08B1FCF76CFC80
:105990000094019469460548FEF79EFB002801D05B
:1059A000FCF762FC1CBD000000100040B40C00209D
:1059B00010B50C480A4901604FF461214160002193
:1059C0008160C16001610C2242618161C161FFF7A8
:1059D00061F8002803D0BDE81040FCF745BC10BDBD
:1059E00000100140FC0C002010B50D480B4901606F
:1059F0000C494160002181604FF40052C260D21016
:105A000002610C2242618161C161FFF743F8002805
:105A100003D0BDE81040FCF727BC10BD0048004093
:105A2000440D0020A086010010B50C480A49016011
:105A30004FF4E131416000218160C16001610C22BD
:105A400042618161C161FFF725F8002803D0BDE8FC
:105A50001040FCF709BC10BD001401408C0D002063
:105A6000FEE70000382202490248FEF7A4BE00000B
:105A7000A8190020FC0C002070B52DED028B424CC3
:105A8000607841287CD1A078302879D114F80A3F79
:105A900014F8012C14F8021C14F8030CFCF708FB92
:105AA0009FED3A8A384D20EE080A383585ED000A18
:105AB0002379E278A1786078FCF7FAFA20EE080AF8
:105AC00085ED010A237AE279A1796079FCF7F0FA91
:105AD00020EE080A85ED020A237BE27AA17A607A39
