:020000040800F2
:10000000A8A0002029030008814A0008513D0008EB
:1000100049490008450A0008B564000800000000CE
:10002000000000000000000000000000690200085D
:100030007111000800000000C502000845520008C8
:100040004303000843030008430300084303000878
:10005000430300084303000873110008430300082A
:100060004303000843030008430300084303000858
:10007000511000084303000843030008430300082D
:10008000430300084303000843030008550A00081F
:10009000490A00084303000843030008430300081B
:1000A000430300081D5300084303000843030008EE
:1000B0004303000843030008430300084303000808
:1000C00043030008430300084303000843030008F8
:1000D000430300089D64000843030008430300082D
:1000E00043030008430300084303000843030008D8
:1000F00043030008430300084303000843030008C8
:1001000043030008430300084303000843030008B7
:1001100043030008430300084303000843030008A7
:10012000430300085D100008430300084303000870
:100130004303000843030008430300086D0A000856
:10014000610A000843030008430300084303000852
:10015000691000087510000881100008A9640008E3
:100160004303000843030008430300084303000857
:100170004303000843030008430300080000000095
:10018000430300084303000800F002F800F05CF8A5
:100190000AA090E8000C82448344AAF10107DA45E2
:1001A00001D100F051F8AFF2090EBAE80F0013F0D8
:1001B000010F18BFFB1A43F001031847F0B300000A
:1001C00010B400000A444FF0000C10F8013B13F08B
:1001D000070408BF10F8014B1D1108BF10F8015BA0
:1001E000641E05D010F8016B641E01F8016BF9D193
:1001F00013F0080F1EBF10F8014BAD1C0C1B09D1EA
:100200006D1E58BF01F801CBFAD505E014F8016B5B
:1002100001F8016B6D1EF9D59142D6D370470000ED
:100220000023002400250026103A28BF78C1FBD8FF
:10023000520728BF30C148BF0B6070471FB50AF096
:10024000FEFD1FBD10B510BD00F0DCF91146FFF733
:10025000F5FF07F0EFFE00F0FAF903B4FFF7F2FF45
:1002600003BC00F0FDF900002C4B19680868B0E8E9
:10027000F04F80F30988BFF36F8F4FF0000080F3D9
:10028000118870470000000008480068006880F38B
:1002900008884FF0000080F3148862B661B6BFF39F
:1002A0004F8FBFF36F8F00DF00BF00BF08ED00E08E
:1002B000DFF80C00016841F470010160704700BF75
:1002C00088ED00E0EFF30980BFF36F8F134B1A68DE
:1002D0001EF0100F08BF20ED108A20E9F04F1060CB
:1002E00009B44FF0500080F31188BFF34F8FBFF374
:1002F0006F8F09F045F94FF0000080F3118809BCB9
:1003000019680868B0E8F04F1EF0100F08BFB0EC95
:10031000108A80F30988BFF36F8F70475C04002058
:10032000EFF30580704700000948804709480047FF
:10033000FEE7FEE7FEE7FEE7FEE7FEE7FEE7FEE795
:10034000FEE7FEE704480549054A064B70470000F2
:100350000D53000889010008A89A0020A8A00020D9
:10036000A89C0020A89C002053EA020C00F06980A1
:100370002DE9F04B4FF00006002B1FBFB3FA83F5B9
:1003800003FA05F424FA05F65E4012BF1643B2FAEA
:1003900082F502FA05F4C5F120051EBF22FA05FC1C
:1003A00044EA0C04203556EA044C4FEA144418BFC2
:1003B000641C4FF000084FF00009904271EB030CF1
:1003C00039D3002919BFB1FA81F701FA07F6B0FA5B
:1003D00080F700FA07F6C7F120071EBF20FA07FCD6
:1003E00046EA0C062037B6FBF4FCA7EB0507103FE6
:1003F00007F01F0BCBF120060CFA0BFB2CFA06F6CC
:1004000044BFB3460026202FA4BF5E464FF0000B2A
:100410005BEA060C08BF4FF0010B19EB0B09ABFBB5
:10042000027C48EB0608C01B06FB02CC0BFB03CC8E
:1004300071EB0C01C1E70B46024641464846BDE858
:10044000F08B13B54FF000004FF00001AFF30080C8
:10045000BDE81C407047032A40F2308010F0030CC6
:1004600000F0158011F8013BBCF1020F624498BF07
:1004700011F801CB00F8013B38BF11F8013BA2F1A4
:10048000040298BF00F801CB38BF00F8013B11F01F
:10049000030300F02580083AC0F0088051F8043BBF
:1004A000083A51F804CBA0E80810F5E7121D5CBF2C
:1004B00051F8043B40F8043BAFF30080D20724BF5F
:1004C00011F8013B11F801CB48BF11F8012B24BFF3
:1004D00000F8013B00F801CB48BF00F8012B704742
:1004E00010B5203AC0F00B80B1E81850203AA0E8CF
:1004F0001850B1E81850A0E81850BFF4F5AF5FEA03
:10050000027C24BFB1E81850A0E8185044BF18C9B5
:1005100018C0BDE810405FEA827C24BF51F8043B5C
:1005200040F8043B08BF7047D20728BF31F8023BB0
:1005300048BF11F8012B28BF20F8023B48BF00F844
:10054000012B70474FF000020429C0F0128010F018
:10055000030C00F01B80CCF1040CBCF1020F18BF9F
:1005600000F8012BA8BF20F8022BA1EB0C0100F032
:100570000DB85FEAC17C24BF00F8012B00F8012B05
:1005800048BF00F8012B70474FF0000200B513463A
:1005900094469646203922BFA0E80C50A0E80C50A3
:1005A000B1F12001BFF4F7AF090728BFA0E80C5054
:1005B00048BF0CC05DF804EB890028BF40F8042B4D
:1005C00008BF704748BF20F8022B11F0804F18BFBA
:1005D00000F8012B704770477047704710B500F066
:1005E00009F8006810BD10B5044600F003F8046077
:1005F00010BD000000487047489A0020004870472E
:10060000489A00207546FFF7F9FFAE460500694697
:10061000534620F00700854618B020B5FFF792FE3C
:10062000BDE820404FF000064FF000074FF00008F3
:100630004FF0000B21F00701AC46ACE8C009ACE874
:10064000C009ACE8C009ACE8C0098D46704710B5D8
:100650000446AFF300802046BDE81040FFF7FDBD23
:1006600001491820ABBEFEE72600020070470000DB
:100670002DED0A8BF2EE049A364C9FED378ADFEDB2
:10068000378A9FED37AA9FED37BA9FED379ADFED96
:1006900037BA9FED37CADFED37AA374D374E08F02E
:1006A00035FD2268012136489047226802213548ED
:1006B000904703F0FFFD07F03DFB00F04FFDF0EE2B
:1006C000682AB0EE482AF7EE081AB0EE4A1AF3EE9E
:1006D000040AB0EE4B0A2C4804F026FBF0EE692A1F
:1006E000B0EE492AF0EE6B1AB0EE4C1AF0EE4A0A60
:1006F000B0EE6A0A254804F017FBF0EE682AB0EE67
:10070000482AF7EE081AB0EE6A1AF3EE040AB0EEC1
:100710004B0A1F4804F008FBF0EE692AB0EE492AA4
:10072000F0EE6B1AB0EE4C1AF0EE4A0AB0EE6A0A1E
:10073000184804F0F9FA00F0F1FA174803F06CFBDE
:1007400004F004F968688047F06A08F02DFE08F0AC
:10075000FDFCA4E7840300200060EA4600409C45BD
:10076000CDCC4C3E00000C4300409C478FC2F53C72
:1007700077CCAB32CDCC4C3F4803002000000020AA
:10078000800B0020A80B0020BC1D0020081E0020AC
:10079000541E0020A01E0020680D00208AB0084CC6
:1007A0006D464FF0FF3707AE3A466946206809F0BC
:1007B000B9F909AB3246291D009800F095FDF3E721
:1007C000080000202DE9F04FDDE90BC8DDE90EAB94
:1007D000DDF83490DDE90967002404E0C4F1020E7D
:1007E00000F80E50641C032C02DA0D5D002DF5D1CB
:1007F00010F8031F21F03801203162F3020101706B
:10080000018863F389110180417866F385014170A5
:10081000818868F309018180B0F8051069F38C01C3
:10082000A0F80510C1886AF34F11C180B0F801101B
:1008300067F38E11A0F8011041886CF3CF1141804D
:10084000B0F809106BF38C01A0F8091042891099D7
:1008500061F34F124281BDE8F08F00003EB50020E9
:10086000019002901D49C889020A8DF804208DF874
:100870000500488B020A8DF806208DF807001848FD
:10088000DFED180AD0F8760000EE100A20EE200AFC
:10089000BDEEC00A10EE100A020A8DF808208DF88D
:1008A00009004A7D9DF80A0002F0010210438DF80C
:1008B0000A00097F9DF80B0001F0010140EA4100A8
:1008C0008DF80B0001A80090074840F20F1300229A
:1008D0004468074805490068A0473EBD081000204D
:1008E000B010002000007A4484030020A80B0020F0
:1008F000080000200FB49DF81D009DF81C1040EA70
:10090000012000B2404200EE100AF8EEC00A9DF845
:100910001F009DF81E1040EA012000B200EE100AF0
:10092000B8EEC01A9DF821009DF8201040EA012081
:1009300000B200EE100AF8EEC01A9DF823009DF8F0
:10094000221040EA012000B2404200EE100A0F4996
:10095000B8EEC00A81ED020A0D48C0ED000A80ED34
:10096000011ADFED0C0A81EEA01A80ED021A887CD4
:10097000002808D108489FED091AD0ED020A40EE80
:10098000410AC0ED020A04B07047000008100020C0
:10099000A01F0020000048C37C1F00208FC2753DAF
:1009A0000FB49DF81D009DF81C1040EA012000B214
:1009B00000EE100AB8EEC00A9DF81E001B49400860
:1009C00048749DF81F0000F001020A75C0F3400250
:1009D0008A74C0F38003CB74C0F3C00008749DF820
:1009E00021009DF8203040EA0320114B98801148E7
:1009F000002A15D0B5EEC00A0F4AF1EE10FA01D167
:100A000092ED020AD1ED020A9FED0C1A60EE810A06
:100A1000C0ED000A30EE200A82ED020A04B07047F1
:100A20009FED070A80ED000AF8E70000081000209B
:100A30009C1D0020400000207C1F00208FC2F5BCC0
:100A400000000000FEE70000014800F0D1BD0000FA
:100A5000800B0020014800F0CBBD0000800B00207F
:100A6000014800F0C5BD0000A80B0020014800F0BF
:100A7000BFBD0000A80B002010B50B46002101618E
:100A80004161416281610122C26102620160416093
:100A90008160C1600146184600F098FC002803D030
:100AA000BDE8104000F068BB10BD000010B5044662
:100AB000491EC8B200EB400101EB0010074901EBF1
:100AC00080002146FFF7D8FF204601F02EF820468F
:100AD000BDE81040022100F0F5BB000030140020FA
:100AE00010B58AB00C9C0191002A12D00393049295
:100AF00000210591082206928DF81C1021680891AA
:100B00006168099100231A4601A908F0F9FE0AB0AC
:100B100010BD0293EBE700008EB01B4E4FF0FF3884
:100B200009AF424605A9306808F0FCFF059CA4F215
:100B3000012003280BD8142239466846FFF7D0FC61
:100B4000124806A90EC905682046A847E9E7B4F58A
:100B5000027F0DD0512CE4D1142239466846FFF7AC
:100B6000BFFC0B4806A90EC945682046A847D8E730
:100B7000142239466846FFF7B3FC064806A90EC999
:100B800045682046A847CCE700000020D00300209D
:100B900004040020DC0300208EB01D4F1D4E4FF0DA
:100BA000FF390DF124084A4605A9386808F0BAFF54
:100BB000059CA4F2052003280BD814224146684660
:100BC000FFF78EFC144806A90EC905682046A84701
:100BD000E9E7A4F580710F390ED0A4F580711F39B3
:100BE000E1D1142241466846FFF77AFC06A97568F0
:100BF0000EC92046A847D6E7142241466846FFF7AB
:100C00006FFC06A935680EC92046A847CBE700004F
:100C10000400002034000020D00300202DE9F04F14
:100C20000BAFDDE909C897E8800E0F9D002404E0B2
:100C3000C4F1020E00F80E60641C032C02DA0E5D93
:100C4000002EF5D110F8031F41F0380162F30201C4
:100C50000170018863F38911018041786CF385018B
:100C60004170B0F8011068F38E11A0F801104188AE
:100C700067F3CF114180818869F309018180B0F861
:100C800005106AF38C01A0F80510C1886BF34F11B1
:100C9000C180C01E002104E0431815F8012BDA734F
:100CA000491CB942F8D3BDE8F08F2DE9F047DDE9E2
:100CB0000AC8DDE90867DDF83090002404E0C4F1DB
:100CC000020A00F80A50641C032C02DA0D5D002DA4
:100CD000F5D110F8031F21F03801103162F3020141
:100CE0000170018863F389110180417866F3850101
:100CF0004170818867F309018180B0F805106CF3B9
:100D00008C01A0F80510C18868F34F11C1800189DA
:100D100069F309010181BDE8F087000010B51A48A8
:100D20009FED1A1A90ED020A1948C0EE010A0088D8
:100D30009FED181A00EE100A1748B8EE400A00EEB0
:100D4000810A80ED020AF2EE040AB7EE000A90383A
:100D500003F0B0FEF2EE040AB7EE000A0F4803F00B
:100D6000A9FE0D48F1EE080AB7EE000A603803F05C
:100D7000A1FE0948BDE81040F1EE080AB7EE000AEE
:100D8000303803F097BE0000F41500200000B44393
:100D9000781D0020000000467C1F0020D80F002096
:100DA000FEB526480024264E007C01281ED0B07FC8
:100DB00001281CD123488068804701940294308820
:100DC00000EE100A1F480838B8EE400AD0ED000ABD
:100DD00030EE200A80ED010A10EE100ADFED1A0A4B
:100DE000B0F18B4F04DD30EE600A08E03484FEBDC4
:100DF00010EE100A10F16A5F01D930EE200ADFED23
:100E0000130A20EE200ADFED120A20EE200A08F075
:100E10001BF901AD0095B6F91C000E4903460246C8
:100E20000C680146A0470C48009540F2FF13446847
:100E30000B48002209490068A047FEBD08100020A9
:100E4000781D0020F4030020000000460000003957
:100E50000000B4C3DC03002084030020800B0020CA
:100E60000800002070B52DED028B4C4C218CDFED7D
:100E70004C1A4C4D20460288D5ED020A4A489FED97
:100E80004B1A1E2909D880EEA12A00EE102AB8EECE
:100E9000400A02EE010A80ED020A4FF08C4303E0A3
:100EA00030EE410A80ED020A90ED020A10EE101AAF
:100EB0009942F5DC4FF0464603E030EE010A80ED42
:100EC000020A90ED020A10EE101AB142F5D880EE37
:100ED000A12A62EE010A01EE902AF8EE611A71EE83
:100EE000A00A10EE900A984202DD70EEC10A05E0F9
:100EF00010EE900AB04201D970EE810A2C48BDEE86
:100F0000E01A11EE101AC18195ED051ADFED291ACC
:100F100021EE218A807C9FED281A00B301281BD185
:100F20002148DC3803F00CFE30EE480A84ED050A57
:100F300094ED010A1C48B8EEC00A603803F0D2FDF7
:100F4000F0EE400A94ED050A1C4803F063FEBDEE86
:100F5000C00A10EE100AA083BDEC028B70BD1748CA
:100F60004C3803F0EDFD30EE480A84ED050A94EDAF
:100F7000010A0D48B8EEC00A303803F0B3FDF0EEB8
:100F8000400A0E4894ED050A983803F043FEBDEE82
:100F9000C00A10EE100AA083DEE70000781D0020D2
:100FA0000000B443F41500207C1F00200000004620
:100FB00008100020610BB64100F8FF45541E0020C8
:100FC00010B52DED048B002444EA036343EA02428A
:100FD00042EA01210143002901DA641E00E00124F4
:100FE000C1F3C7507F38C1F3160100EE101A9FED10
:100FF000151AF8EE400A80EE810AF7EE000A30EE8C
:10100000209A09F04EFB41EC110B9FED0F0B05F000
:1010100027FBB0EE408A00EE104AF0EE608AB8EE90
:10102000C00A20EE090A10EE100A09F097FE53ECF0
:10103000182B09F09DFB09F091F800EE100ABDECA9
:10104000048B10BDFEFFFF4A0000000000000040BE
:10105000014800F0F7BD0000700E0020014800F0CC
:10106000F1BD0000D00E0020014800F0EBBD0000F3
:10107000B00D0020014800F0E5BD0000300F002059
:10108000014800F0DFBD0000100E00200168CAB268
:10109000103A1823B2FBF3F2064B9B5CC3656FF367
:1010A0000901032A02D9091D816500E08165806D6F
:1010B0007047000058B3000810B5014600208A6A46
:1010C0008B694FF0C074002B0ED0B3F5005F1AD0BF
:1010D00062B3012A2AD0022A28D0032A03D1C96A7E
:1010E000C90100D5012010BD1AB1012A06D0022A7B
:1010F000F9D1C96AC901F6D5012010BDC96AA1425A
:10110000FBD1012010BD52B1012A0AD0022A06D01B
:10111000032AF7D1C96AA142F4D1012010BD0120F0
:1011200010BDC96AC901FBD5012010BD012010BD49
:1011300030B50468256825F480252560046863605F
:101140008368402B04D0036899600068C26030BD9A
:1011500003689A600068C16030BD00001222024935
:10116000024802F0B0BA000086160020200D0020D0
:101170007047012000F004BF72B6FEE72DE9F04F82
:10118000DDE90BC8DDE90D9ADDE90967002404E01B
:10119000C4F1020B00F80B50641C032C02DA0D5D45
:1011A000002DF5D110F8031F21F03801283162F32A
:1011B00002010170018863F389110180417866F3AF
:1011C00085014170818868F309018180B0F80510BC
:1011D00069F38C01A0F80510C1886AF34F11C18032
:1011E000B0F8011067F38E11A0F8011041886CF37C
:1011F000CF114180DFED0C0A20EE200ABDEEC00ABF
:1012000010EE101A028961F309020281B0F8092078
:101210008B0A63F38C02A0F809204A0D418962F31E
:101220004F114181BDE8F08F00007A4410B50346AC
:101230001046002B01D0084C0AE04FF6FF7010BD9D
:1012400013F8012B4240D2B234F8122082EA102067
:10125000491E4A1CF4D110BD4801002010B50346B8
:101260001046002B01D0084C0AE04FF6FF7010BD6D
:1012700013F8012B4240D2B234F8122082EA102037
:10128000491E4A1CF4D110BD40B1000810B5054CF0
:1012900003E010F8013B5340E25C491E4B1CF8D1BF
:1012A000104610BD4800002010B5054C03E010F8B2
:1012B000013B5340E25C491E4B1CF8D1104610BD67
:1012C00040B0000890F82020012A07D0022A05D05B
:1012D000416A41F4802141620120704700684269FF
:1012E0000A43426100207047F0B590F8205004682E
:1012F000A468012D07D0022D05D0416A41F4802158
:1013000041620120F0BD04F0806504F000663543C1
:1013100001D1E50053D5C4F301640125A5401D604A
:101320008B684FF4C0759BB1CE6805EB041733434F
:101330004E6843EAC6030668F3514FF4C273076868
:1013400003EB04130E69FE50097D012909D00DE05D
:101350000E88CB6805EB041743EA46530668F35141
:10136000EBE70168CE5846F48076CE501179D379F8
:10137000567941EA036193791B0443EA0623194332
:101380004FF4C676036806EB041699511178D378AA
:1013900041EA0361937852781B0443EA0222114325
:1013A0004FF4C473026803EB0413D150006805EBDB
:1013B0000411425842F0010242500020F0BD416A3F
:1013C00041F4001141620120F0BD000010B590F819
:1013D0002020012A07D0022A05D0416A41F4802149
:1013E0004162012010BD3C4800F50070026842F0E7
:1013F00001020260026822F47C52026002684B6AB9
:1014000042EA032202600A7D02F01F0301229A4091
:10141000C3699343C361A0F50070CB69B3B9D0F839
:101420000C329343C0F80C328C894B6864F31F4331
:101430004C6900EBC404C4F840320C890B6864F3B7
:101440001F434C6900EBC404C4F84432CB69012B40
:1014500016D1D0F80C321343C0F80C320C884B680C
:1014600064F31F434C6900EBC404C4F840320C8998
:10147000CB6864F31F434C6900EBC404C4F84432E6
:101480008B697BB1D0F804321343C0F804320B6986
:1014900073B1D0F814321343C0F81432096A012929
:1014A0000CD010E0D0F804329343C0F80432EEE7D9
:1014B000D0F814329343C0F81432EFE7D0F81C127E
:1014C0001143C0F81C12D0F8001221F00101C0F83D
:1014D0000012002010BD000000640040704770B58D
:1014E00090F82040012C07D0022C05D0416A41F42D
:1014F00080214162012070BD21B104682469A407E4
:101500002AD003E00468E468A4071FD04FF4D8741D
:10151000056804EB01142D5905F0040595600DB321
:1015200005682D59ED08556005682C5904F0020432
:10153000D4604FF4DA74056804EB01142E5906F0F8
:101540000F06082E13D30825156114E0416A41F4F3
:1015500000114162012070BD416A41F400114162F5
:10156000012070BD05682D596D0D1560DCE72D5902
:1015700005F00F05156105682D59C5F3072595611F
:1015800005682C59240C54614FF4DC72046802EB9A
:101590000112A4581C700468A458240A5C700468E2
:1015A000A458240C9C700468A258120EDA704FF4F0
:1015B000DE72046802EB0112A4581C710468A4587E
:1015C000240A5C710468A458240C9C710468A25815
:1015D000120EDA7131B10068016941F02001016138
:1015E000002070BD0068C16841F02001C160F7E7CC
:1015F0002DE9F05F0546002428684669D0F804907C
:101600008768D0F80CA0D0F810B0D0F81880F10797
:1016100048D0F90714D001218160B80703D52846C6
:1016200000F0B0FA0CE0780702D54FF4006407E050
:10163000380702D54FF4805402E0284600F0A1FAA2
:10164000F80516D529684FF480708860B80503D571
:10165000284600F099FA0CE0780502D544F40054CD
:1016600007E0380502D544F4804402E0284600F043
:101670008AFAF80316D529684FF480308860B803D9
:1016800003D5284600F082FA0CE0780302D544F432
:10169000004407E0380302D544F4803402E02846D1
:1016A00000F073FA300707D55FEACA6004D544F446
:1016B000007429681020C86070074FF0080707D52C
:1016C0005FEA0A7004D52868C760284600F0C8F9A8
:1016D000B00706D52868C068800702D0284600F009
:1016E000C1F9700607D55FEACB6004D544F4806485
:1016F000296810200861B00607D55FEA0B7004D591
:1017000028680761284600F00DFAF00606D528681B
:101710000069800702D0284600F005FAB00308D51A
:101720005FEAC96005D5296810204860284600F0A6
:10173000FBF9F00307D55FEA097004D52868476014
:10174000284600F024FA300446D55FEA497040D5B7
:10175000F00504D55FEAC87001D044F00104B0057B
:1017600004D55FEA887001D544F00204700504D501
:101770005FEA487001D544F00404300529D518F01B
:10178000700F26D008F07000402815D006DC102815
:1017900009D020280AD0302816D10AE050280ED0CF
:1017A000602811D10EE044F008040DE044F010046C
:1017B0000AE044F0200407E044F0400404E044F070
:1017C000800401E044F480742868816921F070018C
:1017D0008161296804204860002C05D0686A204394
:1017E00068622846FFF77AFEBDE8F09F70B50446B0
:1017F000002C03D094F8200010B104E0012070BD4B
:10180000204600F09DF82068016841F00101016068
:1018100000F0B2FC054605260CE000F0ADFC401BD4
:101820000A2807D9606A40F40030606284F82060BA
:10183000012070BD20684068C007EED020680168B4
:1018400021F00201016000F097FC05460CE000F079
:1018500093FC401B0A2807D9606A40F4003060629C
:1018600084F82060012070BD206840688007EED4B5
:10187000207E01283FD02068016821F080010160AE
:10188000607E01283DD02068016821F040010160A0
:10189000A07E01283BD02068016821F02001016072
:1018A000E07E012839D02068016841F01001016014
:1018B000207F012837D02068016821F008010160ED
:1018C000607F012835D02068016821F004010160A3
:1018D000D4E902010843D4E90412114308436168C2
:1018E000491E08432168C86100206062012084F815
:1018F0002000002070BD2068016841F08001016077
:10190000BEE72068016841F040010160C0E720683F
:10191000016841F020010160C2E72068016821F000
:1019200010010160C4E72068016841F0080101600E
:10193000C6E72068016841F004010160C8E70000C3
:101940002DE9F04186B00446142101A8FEF71CFEE3
:101950003E4B3F4ADFF8F080186821683C4C032674
:101960000227401C103200254FF0090C41452FD1B1
:101970001860012807D1106840F0007010601068EE
:1019800000F000700090206840F00800206020689F
:1019900000F0080000900196029703950496CDF898
:1019A00014C001A92B4800F0F7FA002205211320EA
:1019B00000F07AFC132000F069FC002205211420BD
:1019C00000F072FC142000F061FC06B0BDE8F0816C
:1019D000DFF884804145F8D1116841F080611160E1
:1019E000116801F0806100911860012807D110682A
:1019F00040F000701060106800F0007000902068E7
:101A000040F002002060206800F00200009060209A
:101A10000190029703950496CDF814C001A90F48D0
:101A200000F0BAFA002205213F2000F03DFC3F20E3
:101A300000F02CFC00220521402000F035FC402065
:101A400000F024FCC1E700000064004030000020EA
:101A500030380240000C02400068004000040240A0
:101A600070470000F8B5294B02680021284D9A42C2
:101A700001D1297001E0012129702978254C01EB61
:101A8000410202EB011104EB810202F1440328320E
:101A90000021FFF724FD287804F1980600EB4001AF
:101AA00001EB001104EB810100EBC000283106EBD3
:101AB00080001C22FEF714FD287800EB400202EBA8
:101AC000001204EB820200EBC00106EB8101936C73
:101AD000526CC1E9072388B10F4800236A460068A9
:101AE00007F0C0FF0098002807D00C494FF0805045
:101AF0000860BFF34F8FBFF36F8FF8BD08483146C2
:101B000000236A46006807F0ADFFEBE70064004081
:101B1000BC030020301400200400002004ED00E08D
:101B20000000002070477047704770B5044694F875
:101B30002000012805D0606A40F400206062012086
:101B400070BD022084F820002068016821F00101A6
:101B5000016000F011FB05460DE000F00DFB401B9D
:101B60000A2808D9606A40F400306062052084F8D1
:101B70002000012070BD20684068C007EDD1606280
:101B800070BD704770477047704770477047704727
:101B90002DE9F0410446A76D00F0EEFA054694F8F1
:101BA00035000026022806D08020606584F8346065
:101BB0000120BDE8F0812068016821F01601016074
:101BC0002068416921F080014161206C08B9A06C56
:101BD00020B12068016821F00801016020680168D7
:101BE00021F0010101600BE000F0C6FA401B05285E
:101BF00006D9202034342062032060702670D8E794
:101C000020680068C007EFD134343F2094F82810D2
:101C10008840B8600120607026700020C9E790F805
:101C20003510022903D0802141650120704705212C
:101C300080F835100068016821F001010160002082
:101C4000704700002DE9F84304464FF00009CDF835
:101C500000906F484FF416510068B0FBF1F7A56D86
:101C60002E6894F85C00082202FA00F1314210D08C
:101C70002068016849070CD5016821F00401016062
:101C800094F85C0002FA00F1A960606D40F0010078
:101C9000606594F85C104FF0010808FA01F03042DA
:101CA00008D021684969090604D5A860606D40F034
:101CB0000200606594F85C1004208840304208D02F
:101CC00021680968890704D5A860606D40F00400A8
:101CD000606594F85C1010208840304220D0216864
:101CE000096809071CD5A8602068016849030CD55C
:101CF0000068000304D4216C91B1204688470FE0AE
:101D0000A16C69B1204688470AE00168C90503D47F
:101D1000016821F008010160216C09B12046884763
:101D200094F85C102020884030424CD0216809682B
:101D3000C90648D5A86094F8350005280BD020685E
:101D40000168490330D50068000328D4616C51B3A1
:101D50002046884737E02068016821F016010160BD
:101D60002068416921F080014161206C08B9A06CB4
:101D700020B12068016821F00801016094F85C102E
:101D80003F208840A86084F8358084F83490216D25
:101D900000293BD001B02046BDE8F0430847E16B85
:101DA00009B1204688470EE00168C90507D40168DB
:101DB00021F01001016084F8358084F83490E16BE3
:101DC00009B120468847606D00281FD0606DC007AC
:101DD00014D0052084F835002068016821F0010145
:101DE00001600098401C0090B84203D82068006849
:101DF000C007F6D184F8358084F83490E16C00296E
:101E000004D001B02046BDE8F0430847BDE8F883A0
:101E10004C0400202DE9F041044600F0ADF90546E0
:101E20005CB1022084F83500002684F83460206814
:101E3000016821F0010101600DE00120BDE8F081A1
:101E400000F09AF9401B052805D920206065032081
:101E500084F83500F2E720680068C007F0D12168F7
:101E60000A6820480240D4E901031843D4E9033545
:101E70002B43184363691843A3691843E369184364
:101E8000236A18431043626A042A03D1D4E90B235E
:101E90001A43104308602068406920F00700656A13
:101EA00029460543012704290DD1A06A0543E06AAC
:101EB00048B12046FFF700F928B14020606584F85A
:101EC00035700120BAE7206845612046FFF7DEF84B
:101ED00094F85C203F2191408160666584F83570FC
:101EE0000020ABE73F8010F02DE9F04104460025CB
:101EF000A66D94F8340001280DD0012084F8340038
:101F000094F835700020012F07D084F834000225A2
:101F10002846BDE8F0810220FBE7022784F83570EF
:101F200060652046FFF704F994F85C103F20884074
:101F3000B0602068016841F016010160206C20B19A
:101F40002068016841F0080101602068016841F0E3
:101F500001010160DCE7000070B5044600F00CF9F7
:101F60000546601C02D004480078044400F004F9DF
:101F7000401BA042FAD370BD5004002070470000FF
:101F800010B504490A68024202D00860FFF7F6FF64
:101F900010BD0000143C01402DE9F84F0022DFF88D
:101FA0009C914FF0010803274FF00F0C09F1040A30
:101FB000A9F1040B08FA02F50B682B40AB426ED175
:101FC0000C7904F00304012C01D0022C15D1866891
:101FD000540007FA04FE26EA0E06D1F80CE00EFAC9
:101FE00004FE4EEA060EC0F808E04468AC430D79E2
:101FF000C5F300159540254345600C79E443A407DB
:1020000008D0C568540007FA04F6B5438E68A640A8
:102010002E43C6600C7904F00304022C11D1D408BD
:1020200000EB8406356A5407E40E0CFA04FE25EA38
:102030000E05D1F810E00EFA04FE4EEA050EC6F8C1
:1020400020E00568540007FA04F6B5430E7906F05F
:102050000306A6402E4306604C6814F4403F67D048
:10206000374C256845F480452560246804F4804495
:102070000094344C22F003052E19D6F80858940722
:102080004FEA147E0CFA0EF4A5432F4CA04201D166
:10209000002424E02D4CA04202D101241FE047E09F
:1020A0002B4CA04201D1022419E02A4CA04201D1BC
:1020B000032414E0284CA04201D104240FE0274C53
:1020C000A04201D105240AE0254CA04201D10624FA
:1020D00005E0244CA04201D1072400E0082404FAC2
:1020E0000EF42C43C6F80848D9F800409C434D68CC
:1020F000ED0200D51C43C9F80040DAF800409C43CB
:102100004D68AD0200D51C43CAF80040DBF8004022
:102110009C434D68AD0300D51C43CBF80040074DF0
:10212000083D2C689C434E68F60300D51C432C6088
:10213000521C102AFFF43EAFBDE8F88F083C014066
:1021400044380240003001400000024000040240D8
:1021500000080240000C024000100240001402403F
:1021600000180240001C0240002A01D08161704723
:1021700009048161704700000148806870470000D1
:102180005004002002488168027811448160704741
:102190005004002010B50B48016841F40071016043
:1021A000016841F480610160016841F4807101605F
:1021B000032000F099F8052000F006F800F04AF836
:1021C000002010BD003C024030B587B00546002419
:1021D0001B48016841F001010160006800F0010046
:1021E000009001A902A800F0DBF900F00DFA400010
:1021F0001449B0FBF1F1491E1448134A026040F241
:10220000E732C260416004618460846100F034FFA1
:10221000044694B90D4800F0B7FF04466CB9192084
:1022200000F034F8102D07D200222946192000F0C2
:102230003BF80748056000E0012407B0204630BDA8
:102240004438024040420F0000000140900F00203F
:102250005404002082B00C48016841F480410160C0
:10226000006800F4804001900748001F016841F0B9
:1022700080510160006800F08050019000220F2121
:10228000901E02B000F010B844380240002809DB6C
:1022900000F01F02012191404009800000F1E02080
:1022A000C0F8001170470000F0B40D460D4B1B68DC
:1022B000C3F30223C3F10704042C00D90424191D1D
:1022C000072901D2002300E0DB1E012606FA04F1F3
:1022D000491E294099409E40761E16403143F0BC6D
:1022E00004F03CB90CED00E000F00701054A10686D
:1022F0004FF6FF03184040EA0120034908431060ED
:10230000704700000CED00E00000FA052DE9F843ED
:1023100004464FF0010820684FF00007C10701D1C3
:1023200040072BD5DFF81891C9F86870FFF724FF34
:102330000646444D07E0FFF71FFF801B022802D925
:102340000320BDE8F88328680001F4D46068217A8E
:10235000800140EA01703B4984310860C9F8688017
:10236000FFF70AFF064606E0FFF706FF801B02287C
:1023700001D90320E5E728680001F5D5207880071A
:1023800053D530484030016841F080510160006809
:1023900000F0805000902C4D286840F48070286038
:1023A000FFF7EAFE064606E0FFF7E6FE801B02287E
:1023B00001D90320C5E72868C005F5D5214D703542
:1023C000286800F44070F8B1A18901F4407181429D
:1023D0001AD0286820F440701C49C1F800800F60B2
:1023E00028602868C0070FD0FFF7C6FE064641F2F6
:1023F000883706E0FFF7C0FE801BB84201D90320F2
:102400009FE728688007F5D5E0680E49C0F30122F0
:102410000831032A0BD0086820F4F81008602868F7
:10242000A189C1F30B0108432860002089E70A68ED
:10243000074B22F4F812184002430A60EFE700004D
:10244000000047420038024000700040400E474202
:10245000FFFCFF0F2DE9F04704460D46002C13D07A
:10246000DFF82891D9F80000EFB200F00700A84289
:102470000CD289F80070D9F8000000F00700A842DB
:1024800004D00120BDE8F0870120FBE72068404E22
:10249000810712D5400703D5306840F4E050306022
:1024A0002078000703D5306840F460403060306821
:1024B000A16820F0F000084330602078C00731D0D8
:1024C000334960680839012808D002280BD0032856
:1024D00009D0096889070BD40120D3E7096889036B
:1024E00006D40120CEE70968890101D40120C9E79B
:1024F000316821F0030101433160FFF73DFE804662
:1025000041F2883A07E0FFF737FEA0EB080050459C
:1025100001D90320B6E73068616800F00C00B0EB29
:10252000810FF0D1D9F8000000F00700A84209D9C6
:1025300089F80070D9F8000000F00700A84201D027
:1025400001209FE72078400705D53068E16820F436
:10255000E050084330602078000706D530682169D4
:1025600020F4604040EAC100306000F05DF831685E
:10257000084AC1F30311515CC84007490860074885
:102580000068FFF721FE00207CE70000003C0240CD
:102590000838024040B300084C04002054040020D6
:1025A0000F2202600B4A136803F0030343601368B1
:1025B00003F0F0038360136803F4E053C360126810
:1025C00002F46042D20802610348006800F007008C
:1025D0000860704708380240003C0240014800682B
:1025E000704700004C04002000B5FFF7F7FF0449D6
:1025F0000968044AC1F38221515CC84000BD000053
:102600000838024050B3000800B5FFF7E7FF04495F
:102610000968044AC1F34231515CC84000BD000062
:102620000838024050B3000810B51748006810F091
:102630000C01164816D0164B042912D0082911D1C6
:10264000114C241F216801F03F02216849020AD57C
:102650002068C0F38810A0FB03010023FDF784FE6F
:1026600009E0184610BD21680023C1F38811A1FBC1
:102670000001FDF779FE2168C1F30141491C4900C1
:10268000B0FBF1F010BD0000083802400024F40057
:10269000001BB7002DE9F84F0446002C13D020781A
:1026A000DFF8A083C007A8F1040556D008F10400A4
:1026B0000168C1F3810101290CD00068C0F38100D9
:1026C000022803D00DE00120BDE8F88FD8F8000003
:1026D000400206D5286880033FD5606870BB0120A2
:1026E000F2E76068B0F5803F10D0B0F5A02F12D0AF
:1026F000286820F480302860286820F48020286032
:102700006068E0B1FFF738FD064614E0286840F441
:1027100080302860F4E7286840F48020286028682A
:1027200040F480302860EBE7FFF726FD801B64282B
:1027300001D90320C8E728688003F5D50DE0FFF72D
:102740001BFD064606E0FFF717FD801B642801D934
:102750000320B9E728688003F5D42078BA4F8007B2
:102760004FF0000948D5B748001D016811F00C0F63
:1027700008D00068C0F38100022813D1D8F8000007
:1027800040020FD42868800704D5E068012801D0F2
:10279000012099E72868216920F0F80040EAC1008B
:1027A000286029E0E068B8B101203860FFF7E4FC58
:1027B000064606E0FFF7E0FC801B022801D9032053
:1027C00082E728688007F5D52868216920F0F8009D
:1027D00040EAC10028600FE0C7F80090FFF7CCFC8A
:1027E000064606E0FFF7C8FC801B022801D903203B
:1027F0006AE728688007F5D42078000729D5DFF834
:1028000044A2924861690AF1700A89B1012101600C
:10281000FFF7B2FC064606E0FFF7AEFC801B02287D
:1028200001D9032050E7DAF800008007F4D510E062
:10283000C0F80090FFF7A0FC064606E0FFF79CFCFE
:10284000801B022801D903203EE7DAF80000800748
:10285000F4D42078400778D54FF0000A79483C300E
:102860000068C0000BD477483C30016841F08051CB
:102870000160006800F0805000904FF0010ADFF81E
:10288000D0B1DBF80000C00514D4DBF8000040F440
:102890008070CBF80000FFF76FFC064606E0FFF7FC
:1028A0006BFC801B022801D903200DE7DBF8000038
:1028B000C005F4D5634EA0686C3601280FD00528FA
:1028C00012D0306820F001003060306820F0040041
:1028D0003060A068F8B1FFF74FFC834617E030681E
:1028E00040F001003060F4E7306840F004003060F0
:1028F000306840F001003060EBE7FFF73DFCA0EBF3
:102900000B0141F28830814201D90320DCE63068B6
:102910008007F2D510E0FFF72FFC834609E0FFF7B0
:102920002BFCA0EB0B0141F28830814201D903203E
:10293000CAE630688007F2D4BAF1010F05D14148E8
:102940003C30016821F080510160A069C0B33D496D
:10295000091D09684FF0FF36C1F38101022946D0F5
:10296000022805D0C7F86090FFF706FC04463AE05D
:10297000C7F86090FFF700FC814607E0FFF7FCFB1B
:10298000A0EB0900022801D903209DE628688001F8
:10299000F4D4D4E907010843616AA26A890106EB0D
:1029A000520241EA0241084394F82C1040EA0160C7
:1029B000C8F8000001203866FFF7DEFB044607E098
:1029C0003DE0FFF7D9FB001B022801D903207BE67D
:1029D00028688001F5D532E0FFF7CEFB001B022806
:1029E00001D9032070E628688001F5D427E001288A
:1029F00023D0D8F80000E26900F4800191421AD196
:102A0000226A00F03F01914215D147F6C071626A17
:102A10000140B1EB821F0ED1A26A00F4403106EBF7
:102A20005202B1EB024F06D194F82C1000F0706006
:102A3000B0EB016F03D0012046E6012044E6002000
:102A400042E600000438024000004742800E474240
:102A50000070004010B50446002C02D0607F10B119
:102A600006E0012010BD00202077204600F042F84B
:102A7000022060772068C168C943C90631D5CA21E0
:102A80004162216853204862204602F044FAC8B9E6
:102A900020688168164A11408160206881686268F8
:102AA0001143D4E904231A43114381602168E0688B
:102AB000086120680169228941EA024101612046DA
:102AC00002F04CFA48B921680A6C22F480220A64A8
:102AD00021680A6CA3691A430A642268FF215162C3
:102AE00000E000200028BDD10121617710BD000069
:102AF000BFFF8FFF1FB5002100910191029103914B
:102B00000068084988420CD102200090000203901E
:102B10006846FFF7FBFB08B1FEF72EFB02490120D8
:102B200008601FBD002800403C0E474270B50446B7
:102B30000B46207F012805D00126267702206077EA
:102B400012B108E0022070BD5878C10603D500F02C
:102B5000EF000A305870A2B19878D97840EA014560
:102B600058781978000240EA413005432168CA20AC
:102B70004862216853204862204602F0CCF988B1AF
:102B800017E0D87802F0BCF90204587802F0B8F9DE
:102B900042EA0022987802F0B3F90243187842EA38
:102BA0004035E3E70748054020684560204602F0CD
:102BB000D5F900B966772268FF215162002121779B
:102BC00070BD00003FFFFF002DE9F04104460D46B7
:102BD000207F012821D04FF0010884F81C800220BA
:102BE00060770027E2B120688068400600D4EF706B
:102BF000A878297840EA01466878E978000240EA36
:102C0000815006432168CA204862216853204862E7
:102C1000204602F080F9C8B12BE00220BDE8F08127
:102C200020688068400600D4EF70287802F068F9C8
:102C30000204687802F064F942EA0022A87802F0FF
:102C40005FF90243E87842EA8056DBE70D48064028
:102C5000206806602068816821F480218160D5E9C0
:102C6000031001432068826811438160204602F00E
:102C700075F908B984F81D802268FF215162277711
:102C8000CCE700007F7F7F0070B505460A482968C1
:102C9000C860FFF771FA04464FF47A7606E0FFF752
:102CA0006BFA001BB04201D9032070BD2868C068D0
:102CB0008006F4D5002070BD5F7F010070B504462A
:102CC000002C09D0606A002540B125616561A562CC
:102CD00094F8510040B10CE0012070BD6068B0F57F
:102CE000827FF4D0E561F2E784F85050204600F08E
:102CF00045F8022084F851002068016821F0400165
:102D00000160A088218900F4827001F40441084325
:102D1000A18901F400610843217C01F0020108430C
:102D2000217D01F001010843218B01F4007108436A
:102D3000217F01F03801084394F8201001F0800150
:102D40000843218D01F40051084321680860A069FF
:102D5000042101EA104094F8241001F01001084306
:102D6000216848602068C16921F40061C16165651E
:102D7000012084F85100002070BD000010B586B01D
:102D80000446142101A8FDF7FFFB1449206888427E
:102D900021D100211248026842F48042026000689A
:102DA00000F4804000900E481038026842F00202A1
:102DB0000260006800F0020000904FF46040019053
:102DC000022002900391032004900520059001A9A0
:102DD0000448FFF7E1F806B010BD000000380040DD
:102DE00040380240000402402DE9FF4F81B0044604
:102DF0000E9E93461F460125FFF7BEF9804694F8C4
:102E00005100616801280AD0B1F5827F03D1A16821
:102E100009B9042803D0022005B0BDE8F08F02985C
:102E2000A0B3BBF1000F32D0380030D094F850007E
:102E300001282ED04FF0010A84F850A094F85100D8
:102E4000042802D0052084F851004FF00009C4F88E
:102E50005490C4F838B0E787A78702982063E786C4
:102E6000A786C4F84090C4F84490206801684906D9
:102E700003D4016841F040010160E068B0F5006FE3
:102E800009D06068F0B3012F4DD082E0FFE7012048
:102E9000C2E70220C0E7606808B1012F3CD1206B77
:102EA00021680088C860206B801C2063E08E401E73
:102EB000E08631E02068816889070DD5E18E59B13F
:102EC000012D09D1216B0988C160206B801C206312
:102ED000E08E401EE086002520688168C9070BD07F
:102EE000E18F49B1C068A16B0880A06B801CA06312
:102EF000E08F401EE0870125FFF73EF9A0EB0800B8
:102F0000B04200E00FE007D3701C05D084F851A058
:102F100084F8509003207FE7E08E0028CAD1E08F2C
:102F20000028C7D13BE0206B216800780873206B34
:102F3000401C2063E08E401EE0862AE02068816805
:102F400089070DD5E18E59B1012D09D1216B097881
:102F50000173206B401C2063E08E401EE08600253C
:102F600020688168C9070BD0E18F49B1C068A16BA7
:102F70000870A06B401CA063E08F401EE087012515
:102F8000FFF7FAF8A0EB0800B04201D3701C12D191
:102F90008EB1E08E0028D1D1E08F0028CED14246FC
:102FA0003146204602F0B2F858B12020606584F81E
:102FB0005090012030E784F851A084F8509003200D
:102FC0002AE7A06818B92068C1688068009084F872
:102FD00051A084F85090606D08B101201CE70020DA
:102FE0001AE770477047000070B590F83C20012A3E
:102FF00031D0012680F83C60022280F83D20026832
:103000005468936824F070050C682C435460134C8A
:103010000268A24214D0B2F1804F11D0104CA242EB
:103020000ED0104CA2420BD00F4CA24208D00F4C35
:10303000A24205D00E4CA24202D00E4CA24204D1B4
:1030400023F080034968194391603C3046700021A9
:103050000170002070BD022070BD00000000014022
:103060000004004000080040000C00400004014043
:10307000004001400018004010B50446002C03D069
:1030800094F83D0010B107E0012010BD002084F845
:103090003C00204600F016F8022084F83D00211D77
:1030A000206802F041F901203D3460726070A07028
:1030B000E07020716071A071E071207220700020BA
:1030C00010BD000008B500680C4A0D49904208D1B7
:1030D000086840F008000860086800F008000090E8
:1030E00008BD084A9042FBD1086840F01000086013
:1030F000086800F01000009008BD0000000C0040BF
:10310000403802400010004090F83D10012901D0E5
:1031100001207047022180F83D1000681349884261
:1031200014D0B0F1804F11D0114988420ED011490E
:1031300088420BD01049884208D01049884205D0F7
:103140000F49884202D00F49884209D1816801F0B5
:103150000701062908D0016841F00101016003E080
:10316000016841F00101016000207047000001404A
:103170000004004000080040000C00400004014032
:10318000004001400018004090F83D10012901D096
:1031900001207047022180F83D100168CA6842F0A2
:1031A0000102CA6000681449884214D0B0F1804F0F
:1031B00011D0124988420ED0114988420BD01149D2
:1031C000884208D01049884205D01049884202D070
:1031D0000F49884209D1816801F00701062908D00A
:1031E000016841F00101016003E0016841F0010163
:1031F0000160002070470000000001400004004012
:1032000000080040000C0040000401400040014064
:103210000018004070B50446002594F83C000128D1
:1032200017D0012684F83C60022084F83D00206815
:10323000826822F0770222F47F4282600868502878
:1032400038D00DDC202853D005DC90B3102811D1E4
:103250004EE0022070BD30284AD040280AD13DE01F
:10326000602831D070280CD0B0F5805F03D0B0F565
:10327000005F12D001253C34667000202070284683
:1032800070BDCB68D1E90121206802F0C8F8206840
:10329000816841F077018160EDE7CB68D1E90121D8
:1032A000206802F0BCF82068816841F480418160A8
:1032B000E1E71DE0CA684968206802F093F95021EF
:1032C000206802F0B6F8D6E7CA684968206802F0BC
:1032D0009AF96021206802F0ACF8CCE7CA68496826
:1032E000206802F07FF94021206802F0A2F8C2E7CE
:1032F00022680146104602F09CF8BCE770472DE9B1
:10330000F04104462068C56806694FF00007B10720
:1033100014D5A90712D5F91E016101202077206874
:103320008069800703D02046FFF7E8FF05E02046CC
:1033300000F0BCF8204600F04CF92777700717D54D
:10334000680715D521686FF0040008610220207716
:103350002068806910F4407F03D02046FFF7CEFF3D
:1033600005E0204600F0A2F8204600F032F9277769
:10337000300716D5280714D521686FF008000861BA
:10338000042020772068C069800703D02046FFF71B
:10339000B5FF05E0204600F089F8204600F019F955
:1033A0002777F00617D5E80615D521686FF01000CD
:1033B0000861082020772068C06910F4407F03D09E
:1033C0002046FFF79BFF05E0204600F06FF82046FF
:1033D00000F0FFF82777F00708D0E80706D021684B
:1033E0006FF001000861204600F062F9300608D550
:1033F000280606D521686FF0800008612046FFF797
:10340000F0FD700608D5680606D521686FF040000B
:103410000861204600F056F9B0060AD5A80608D57E
:1034200021686FF0200008612046BDE8F041FFF7F9
:10343000D9BDBDE8F081000010B586B00446142166
:1034400001A8FDF7A1F815492068884224D1144845
:10345000016841F080010160006800F08000009088
:103460004FF4E0500190022002900121039104905A
:10347000059001A90B48FEF78FFD0B48FFF744FEAE
:103480000021094800F0A6F80421074800F0A2F83E
:103490000821054800F09EF806B010BD000C004061
:1034A00030380240001C0240480C0020704770B5C4
:1034B00004460D46002694F83C0001280FD0012058
:1034C00084F83C006AB1042A1FD0082A32D00C2AA2
:1034D00044D00126002084F83C00304670BD022014
:1034E00070BD2946206801F0ADFF2068816941F078
:1034F000080181612068816921F0040181612068EF
:1035000081692A6911438161E4E72946206801F055
:10351000CDFF2068816941F4006181612068816983
:1035200021F480618161206881692A6941EA022170
:103530008161CFE72946206801F0F2FF2068C16968
:1035400041F00801C1612068C16921F00401C16135
:103550002068C1692A691143C161BBE72946206817
:1035600002F016F82068C16941F40061C161206869
:10357000C16921F48061C1612068C1692A6941EA99
:103580000221C161A6E710B50446002C03D094F8CF
:103590003D0010B107E0012010BD002084F83C0080
:1035A000204600F015F8022084F83D00211D206817
:1035B00001F0BAFE01203D3460726070A070E070CE
:1035C00020716071A071E07120722070002010BD28
:1035D0007047704710B50446002909D004290AD065
:1035E00008290BD094F8410001280AD0012010BD11
:1035F00094F83E00F8E794F83F00F5E794F84000AF
:10360000F2E70220A9B3042937D0082938D084F87A
:1036100041000122206801F0F5FE1E4920681E4A83
:10362000884201D0904203D1436C43F40043436489
:103630002068884213D0B0F1804F10D017498842DB
:103640000DD0174988420AD01649884207D09042C7
:1036500005D01549884202D01449884213D18168A7
:1036600001F00701062912D0016841F00101016053
:103670000DE0FFE784F83E00CBE784F83F00C8E7A1
:1036800084F84000C5E7016841F0010101600020B5
:1036900010BD000000000140000401400004004093
:1036A00000080040000C00400040014000180040AD
:1036B00000680349884201D1FEF764BD70470000ED
:1036C00000000140704738B5044694F842002028B5
:1036D00001D0022038BD51B14AB101202063002041
:1036E0006063204602F076F9014611B105E0012041
:1036F00038BD206B012802D00121084638BD206862
:1037000002684068009020680C3050E8002F42F0BA
:10371000100240E80023002BF5D1EEE710B5044677
:103720000E49206888420ED10D480178FC2905D148
:1037300090F83700FD2801D101F012F9382208492C
:103740000848FFF7C0FF08492068884204D1BDE857
:103750001040064800F052BB10BD000000100140B0
:103760000C160020D80C002000140140680D002029
:1037700070470000F8B5044622681068D1685369A4
:1037800000F00F06002E08D1850606D58D0604D55B
:103790002046BDE8F84002F02FB80025002E66D084
:1037A00003F0010601F49077374360D0C20705D0DB
:1037B000CA0503D5626C42F001026264420705D576
:1037C000DA0703D0626C42F002026264820705D518
:1037D000DA0703D0626C42F004026264020707D584
:1037E00001F02002324303D0626C42F008026264AE
:1037F000626C002A31D0800604D5880602D52046A6
:1038000001F0FAFF20684069C0F38010616C09077D
:1038100000D438B3204601F0ADFF2068406940066F
:103820001CD52068143050E8001F21F0400140E80A
:103830000012002AF5D1E06B60B159490165E06BD7
:10384000FEF7EDF9002808D0E06B016D01B0BDE88E
:10385000F04008472046FFF78BFFF8BD2046FFF7F2
:1038600087FFF8BD2046FFF783FF6564F8BD236B33
:10387000012B7DD1C3067BD5CB067FD51068506860
:10388000009050694FF0200340064FF0020644D5E7
:10389000E16B0868406880B20028E7D0A28D8242C0
:1038A000E4D9E085C869B0F5807F2DD020680C3060
:1038B00050E8001F21F4807140E80012002AF5D181
:1038C0002068143050E8001F21F0010140E8001288
:1038D000002AF5D12068143050E8001F21F0400183
:1038E00040E80012002AF5D184F8423025632068B0
:1038F0000C3050E8001F21F0100140E80012002AAF
:10390000F5D1E06BFEF744F96663A08DE18D401AB6
:1039100081B22046FFF702FFF8BDA08DE18D401A6D
:1039200081B2E08D0028F7D00029F5D020680C3056
:1039300050E8002F22F4907240E80027002FF5D1C4
:103940002068143050E8002F22F0010240E80027E0
:10395000002FF5D184F84230256320680C3050E800
:10396000002F22F0100240E80023002BF5D100E0E8
:1039700004E066632046FFF7D1FEF8BD020606D5D7
:103980000A0604D52046BDE8F84002F06DB84006AE
:10399000F3D54806F1D52046BDE8F84001F011BF47
:1039A0002B56000870B50446002C04D094F8410052
:1039B000002510B106E0012070BD84F8405020467B
:1039C00000F024F8242084F841002068C16821F424
:1039D0000051C160204601F073FF2068016921F4A5
:1039E000904101612068416921F02A01416120680C
:1039F000C16841F40051C1606564202084F8410031
:103A000084F842006563002070BD00002DE9F04F8E
:103A100087B00446142102A8FCF7B6FD8A48894BFA
:103A20001438226888490225002706154FF003093B
:103A30004FF0070B4FF0006A4FF400389A4269D1FB
:103A40000A6842F010020A60096801F01001019151
:103A5000016841F002010160016801F00201019179
:103A6000016841F001010160006800F0010001906F
:103A70008020029003950497CDF81490CDF818B0EB
:103A800002A97248FEF788FA28020290039504976B
:103A9000CDF81490CDF818B002A96D48FEF77CFA65
:103AA0006D4D6C482860C5F804A0AF60EF602E61D2
:103AB0006F61AF61EF61C5F820806F622846FEF745
:103AC000A9F908B1FDF758FBE563AC636148624DA5
:103AD000303060352860C5F804A04020A860EF6051
:103AE0002E616F61AF61EF61C5F820806F6228467B
:103AF000FEF790F908B1FDF73FFBA563AC63002228
:103B000005212520FEF7D0FB2520FEF7BFFB07B0DF
:103B1000BDE8F08F514B9A4237D14B49091F0A68D3
:103B200042F480220A60096801F480210191016851
:103B300041F004010160006800F0040001904FF4BE
:103B40004060029003950497CDF81490CDF818B01A
:103B500002A94348FEF720FA3F4D4248C03528608D
:103B6000C5F804A0AF60EF602E616F61AF61EF61D7
:103B70004FF4403028626F622846FEF74BF908B1D7
:103B8000FDF7FAFAE563AC63C1E7374B9A42BED161
:103B90000A6842F020020A60096801F020010191E0
:103BA000016841F040010160006800F040000190B0
:103BB0004FF48440029003950497CDF814900820A8
:103BC000069002A92948FEF7E7F92248284D6038F7
:103BD00028604FF02069C5F80490AF60EF602E6157
:103BE0006F61AF618015E861C5F820806F6228467B
:103BF000FEF710F908B1FDF7BFFAE563AC631548AD
:103C00001B4D183060352860C5F804904020A8602E
:103C1000EF602E616F61AF61EF61C5F820806F6268
:103C20002846FEF7F7F808B1FDF7A6FAA563AC63DE
:103C3000002205214720FEF737FB4720FEF726FB31
:103C400065E70000001001404438024000040240D3
:103C50000000024088640240B00D0020004800408F
:103C60000008024028600240001401400018024091
:103C7000D00E002090F84230202B01D00220704757
:103C800021B11AB10023036301F0A4BE01207047E3
:103C900010B500680A49884210D10A480178FC2909
:103CA00005D190F83700FD2801D100F059FEBDE89C
:103CB0001040382203490448FFF7DCBF10BD000064
:103CC000001001400C160020D80C002070470000A6
:103CD00037B5044694F84100202801D002203EBDAB
:103CE000019959B352B32162A284E2840020606436
:103CF000212384F84130A56B114BEB63A56B114B6D
:103D00002B64A56B104BEB64A36B186520681346FE
:103D1000001DA56B02462846FEF7E6F821686FF005
:103D2000400008602068143050E8001F41F0800116
:103D300040E80012002AF5D100203EBD01203EBD22
:103D4000295700086B5700083B560008704770471A
:103D5000FEE700002748284990F84200012814D0C7
:103D6000652818D003281CD0672820D0042824D028
:103D7000682828D005282CD0692830D0072834D0CE
:103D80006B2801D14880888070470120488040F22C
:103D90000110888070476520488040F26510888057
:103DA00070470320488040F20310888070476720E6
:103DB000488040F2671088807047042048804FF4A4
:103DC000827088807047682048804FF4B470888083
:103DD00070470520488040F20510888070476920B0
:103DE000488040F2691088807047072048808880AA
:103DF00070470000B01000207C03002010B504467E
:103E0000044800F00FF82046BDE810408822014920
:103E1000FFF759BC2810002088220149FFF753BC46
:103E2000281000202DE9F0470446002C70D07D4D6D
:103E30002068E8602079287405F108073879A528FA
:103E400066D10521204602F057FB01285CD1B7F866
:103E500005100931204602F02FFB0128F6D16079C8
:103E6000A17940EA01207881E11D40F20623A0F209
:103E70000622984271D023DC40F205136A4EA0F26C
:103E800005124FF000084FF00109984253D00EDCA4
:103E9000032841D004DC012829D0022834D138E09D
:103EA000A0F5807001383DD003282DD13DE0FC2ADB
:103EB00047D0FD2A59D0FE2A5FD0FF2A24D164E0E2
:103EC00058488030052A74D008DC012A69D0022ABB
:103ED00075D0032A79D0042A16D179E0062A6BD04E
:103EE000072A6AD0082A69D0FE2A0DD189E008681D
:103EF00068614868A8610889A883887AA877387BB0
:103F0000000902D086F81C9082E086F81C807FE0D1
:103F100086E00878E8777BE0424820222030FCF7F2
:103F20009AFA75E00868286472E0088825F8440F5A
:103F30008878A8706CE0088825F8470F8878A87002
:103F400066E038480D224A30FCF785FA97F84200BF
:103F5000642803D286F8159003E01EE001D986F8A4
:103F60001580B7F84400708352E02E484FF01002DD
:103F700000F15700FCF76FFA4AE0086845F8670F50
:103F8000486868608868A86042E0086845F8730F70
:103F90008888A8808879A8713AE0087885F87A003E
:103FA00036E0086845F87B0F8888A8808879A87172
:103FB0002EE012E003E008E015E018E01DE00A68DA
:103FC000C0F802208988C18022E0096881601FE072
:103FD0000A68C260898801821AE012482822923059
:103FE000FCF739FA14E0097880F83A1010E00A6812
:103FF00040F83B2F898881800AE0097880F84110D9
:1040000006E00A480A6802604A684260896881607E
:10401000B7F805000934015DA52901D1044404E77E
:10402000BDE8F087A8100020081000203D120020F5
:104030002DE9F04FDDE90BC8DDE90D9ADDE90967EF
:10404000002404E0C4F1020B00F80B50641C032CA4
:1040500002DA0D5D002DF5D110F8031F62F30201A5
:104060000170018863F389110180417866F385014D
:104070004170818867F309018180B0F805106CF305
:104080008C01A0F80510C18868F34F11C180B0F809
:10409000091069F38C01A0F8091041896AF34F11E6
:1040A0004181BDE8F08F0180002181800172418053
:1040B000C180018241610183418380F820107047F3
:1040C0000FB410B50298A0F201209DF825109DF8BC
:1040D000242041EA022100EBC00202EB00121B483F
:1040E00000EBC20041809DF827109DF8262041EA90
:1040F000022181809DF829109DF8282041EA0221A3
:10410000C1809DF82A1001724188028A104B8C1AD6
:104110009C4203DA018B491C018305E0511A994244
:1041200002DA018B491E01834188B0F9182001EBA6
:104130004231416141880182418C491C4184012105
:1041400080F8201010BC5DF814FB00003817002028
:1041500090E8FFFF30B5039C050A25706070080ADF
:10416000A070E170100A20716271180AA071E371E9
:1041700030BD0188818100EE101AB8EE400A80ED52
:10418000040A0021C18170470FB430B50398A0F52F
:1041900002702A4A52F820100B888B819DF8291052
:1041A0009DF8283041EA032152F8203019809DF80B
:1041B0002B109DF82A3041EA032152F8203009B231
:1041C00059609DF82D109DF82C3041EA032152F8DA
:1041D0002030198152F820309DF82E10997252F833
:1041E00020100B888C891C1B154B9C4202DACC8951
:1041F000641CCC8152F820108C890D88641B9C4271
:1042000002DACB895B1ECB8152F820100B88B1F902
:104210000E4003EB443300EE103AB8EEC00A81EDD5
:10422000040A52F820100B8C5B1C0B8452F82000FF
:104230000121817730BC5DF814FB0000D803002019
:104240009CE6FFFF8161704730B5039C050A25702D
:104250006070080AA070E170100A20716271180A7B
:10426000A071E37130BD3EB50446002C18D000208B
:10427000029060684169A26891434161FF2000900B
:10428000012301AA02A92068FEF7AEFDBDF80400D3
:10429000A08160684169A26811434161A0893EBD67
:1042A00005203EBD016042608360002181818182E2
:1042B0007047000010B54FF480530E4A0E490F4866
:1042C000FFF7F0FF0E4C0D48012322460A49283023
:1042D000FFF7E8FF09480223224607495030FFF75D
:1042E000E1FF06488023BDE81040064A02497830C5
:1042F000FFF7D8BF00040240F00B00209816002002
:10430000001402400020024010B52248FFF7ABFF26
:10431000012004F05FF91F482830FFF7A4FF0120B7
:1043200004F058F91B485030FFF79DFF012004F0BE
:1043300051F918487830FFF796FF012004F04AF948
:104340001448818900EE101AF8EE400A9FED120A17
:1043500080EE801A80ED041A818E00EE901AF8EE3D
:10436000600A80EE801A80ED0E1AB0F85C1000EE44
:10437000901AF8EE600A80EE801A80ED181AB0F8F4
:10438000841000EE901AF8EE600A80EE801A80ED3C
:10439000221A10BD9816002000FF7F4710B50F4865
:1043A0000D4901600321416000218160C1604FF42B
:1043B000102202614FF4001242610176417681764B
:1043C000C17601774177FDF711FA002803D0BDE8E7
:1043D0001040FCF7D1BE10BD00640040800B0020EF
:1043E00010B50F480D490160032141600021816033
:1043F000C1604FF4102202614FF400124261017655
:1044000041768176C17601774177FDF7EFF9002893
:1044100003D0BDE81040FCF7AFBE10BD00680040FF
:10442000A80B002008B51D48016841F48001016017
:10443000016801F480010091016841F400110160FC
:10444000006800F400100090002205210C20FDF708
:104450002BFF0C20FDF71AFF002205213920FDF764
:1044600023FF3920FDF712FF002205214420FDF72C
:104470001BFF4420FDF70AFF002205214520FDF720
:1044800013FF4520FDF702FF002205214620FDF71E
:104490000BFFBDE808404620FDF7F8BE303802406B
:1044A00010B5C0B000222421202005F08BF9394C32
:1044B000206000222421402005F084F96060002261
:1044C0002421202005F07EF9A0601C22324939A861
:1044D000FCF706F8002139A804F089F8E0621C22F4
:1044E0002D491C3132A8FBF7FBFF002132A804F054
:1044F0007EF8E0601C22284938312BA8FBF7F0FF3A
:1045000000212BA804F073F820611C2222495431A9
:1045100024A8FBF7E5FF002124A804F068F86061F7
:104520001C221D4970311DA8FBF7DAFF00211DA8D0
:1045300004F05DF8E0611C2217498C3116A8FBF7E6
:10454000CFFF002116A804F052F820621C22124965
:10455000A8310FA8FBF7C4FF00210FA804F047F80B
:1045600060621C220C49C43108A8FBF7B9FF002186
:1045700008A804F03CF8A0621C220749E03101A819
:10458000FBF7AEFF002101A804F031F8A06140B0B4
:1045900010BD00000000002044AF00082DE9F043EA
:1045A00087B0142102A8FBF7EFFF002442480168FE
:1045B00041F002010160016801F00201019101680E
:1045C00041F040010160016801F040010191016882
:1045D00041F001010160016801F0010101910168F0
:1045E00041F008010160016801F0080101910168D2
:1045F00041F004010160016801F0040101910168CA
:1046000041F480710160016801F4807101910168D9
:1046100041F020010160016801F020010191016871
:1046200041F080010160006800F080000190234F9C
:10463000002280213846FDF797FDDFF884800022B4
:1046400003214046FDF790FDDFF87890BE1400226C
:1046500031464846FDF788FD8020029001250395EC
:104660000494059402A93846FDF796FC03200290B5
:1046700003950494059402A94046FDF78DFC02952C
:104680004FF404100390049502A90F48FDF784FC31
:10469000029603950494059402A94846FDF77CFC14
:1046A000062100220846FDF7FFFD0620FDF7EEFD7E
:1046B00007B0BDE8F083000030380240002002401F
:1046C00000140240000402400018024010B586B0F9
:1046D000142101A8FBF758FF002400941A48194937
:1046E00001604460032181600721C160046144616D
:1046F0008461FEF7AFF908B1FCF73EFD8DF8044088
:104700008DF805408DF8064004940594012201A916
:104710000D48FEF759FA08B1FCF72EFD01208DF87F
:1047200000008DF801008DF802008DF80340012291
:1047300069460548FEF7FAF9002801D0FCF71CFD90
:1047400006B010BD00280040D00B002010B5114865
:104750000F4901604FF482714160002181604FF484
:104760000062C26002220261012242615202826141
:104770003822C2610162416281620A21C162FEF790
:104780009DFA002803D0BDE81040FCF7F5BC10BD31
:1047900000380040F00B002010B58EB000240A94C1
:1047A0000B940C940D94089409941C2101A8FBF718
:1047B000EBFE264824490160446084604FF6FF7197
:1047C000C16004618461FEF757FC08B1FCF7D4FCBA
:1047D0004FF480500A900AA91C48FEF71BFD08B14F
:1047E000FCF7CAFC1948FEF7CEFE08B1FCF7C4FC82
:1047F0000894099408A91548FEF7F6FB08B1FCF7E0
:10480000BBFC60200190029403940594002201A94E
:104810000E48FEF74CFE08B1FCF7AEFC042201A9DD
:104820000A48FEF744FE08B1FCF7A6FC082201A9DD
:104830000648FEF73CFE08B1FCF79EFC0348FEF775
:10484000FBFD0EB010BD0000000C0040480C002025
:104850001CB50024009401940E480D4901605321B9
:10486000416084604FF6FF71C16080218161FEF775
:1048700003FC08B1FCF780FC0094019469460548EC
:10488000FEF7B2FB002801D0FCF776FC1CBD00004F
:1048900000100040900C002010B50C480A4901603F
:1048A0004FF46121416000218160C16001610C22EF
:1048B00042618161C161FFF775F8002803D0BDE84E
:1048C0001040FCF759BC10BD00100140D80C00206E
:1048D00010B50D480B4901600C4941600021816011
:1048E0004FF40052C260D21002610C224261816119
:1048F000C161FFF757F8002803D0BDE81040FCF76E
:104900003BBC10BD00480040200D0020A0860100E7
:1049100010B50C480A4901604FF4E13141600021B3
:104920008160C16001610C2242618161C161FFF758
:1049300039F8002803D0BDE81040FCF71DBC10BDBD
:1049400000140140680D0020FEE7000038220249F3
:104950000248FEF7B8BE00000C160020D80C00205C
:1049600070B52DED028B424C607841287CD1A07847
:10497000302879D114F80A3F14F8012C14F8021CDD
:1049800014F8030CFCF71CFB9FED3A8A384D20EE1F
:10499000080A383585ED000A2379E278A178607835
:1049A000FCF70EFB20EE080A85ED010A237AE27976
:1049B000A1796079FCF704FB20EE080A85ED020A74
:1049C000237BE27AA17A607AFCF7FAFA20EE080AF1
:1049D00085ED030A237CE27BA17B607BFCF7F0FA88
:1049E00020EE080A85ED040A237DE27CA17C607C30
:1049F000FCF7E6FA20EE080A85ED050A237EE27D43
:104A0000A17D607DFCF7DCFA85ED060A237FE27E5E
:104A1000A17E607EFCF7D4FA85ED070A94F8203079
:104A2000E27FA17F607FFCF7CBFA85ED080A94F85E
:104A3000243094F8232094F8221094F82100FCF7F5
:104A4000BFFA85ED090A0D489FED0B0A80ED000ABB
:104A500080ED010AD5ED050AC0ED020A80ED030ADA
:104A600080ED040A80ED050ABDEC028B70BD0000EC
:104A70000C1600203333654200000000F4150020BE
:104A8000FEE7000008B505F097F90090074C084DC7
:104A90000026208C2988884201D1A6772684208C84
:104AA00028806421684604F033FCF2E7781D00207A
:104AB000480400209FED0A1A80ED001A80ED031AC9
:104AC00080ED090AC0ED0A0AB7EE000A80ED070A78
:104AD00080ED081A80ED0B0A80ED011A7047000086
:104AE00000000000D0ED071AD0ED000A21EEA01A58
:104AF00080ED011AD0ED090A90ED032A41EE820AF9
:104B0000C0ED040AD0ED0A1A30EEA12AC0EE821AD6
:104B1000C0ED061A30EE412AB0EE410A01EE820ADB
:104B200080ED020AB7EE001A31EE611A61EE200A3A
:104B3000C0ED050AC0ED030A80ED000A70470000D1
:104B400010B504462DED028BF7EE001A31EE218AE6
:104B500084ED000AC4ED010A30EE600A84ED020A19
:104B6000F0EE480A03F07FF884ED020AD4ED070A5C
:104B700060EE800AC4ED0B0AD4ED0C0A94ED081A1D
:104B800041EE000AC4ED0C0A94ED120A04F1300063
:104B900003F054F894ED010AD4ED040A30EE600AF3
:104BA000F0EE480A03F05FF8D4ED090A94ED020A2A
:104BB00094ED031A30EE410A20EE800A84ED0D0ACE
:104BC000DFED130AC4ED0E0A94ED0B1AD4ED0C1AA6
:104BD00031EE211A31EE000A30EE200A84ED100A7F
:104BE00094ED110A04F1400003F028F894ED020A54
:104BF00084ED030A94ED010A84ED040A94ED000AA1
:104C000084ED060A94ED100ABDEC028B10BD000085
:104C10000000000010B5044684ED000AC4ED010A4E
:104C200030EE600A84ED020AD4ED030A94ED071A0F
:104C300070EE600A60EE810AC4ED0B0AD4ED080A3A
:104C400020EE800A84ED0C0A94ED120A04F1300083
:104C500002F0F4FF94ED010AD4ED040AB0EE001A5C
:104C600010EE810AD4ED050A30EE600AD4ED090A8F
:104C700060EE200AC4ED0D0A94ED000A94ED061AC8
:104C800030EE410A94ED0A1A20EE010A84ED0E0A74
:104C900094ED0B1AD4ED0C1A31EE211A71EE200AA4
:104CA00030EE800A84ED0F0AD4ED100A30EE800A4F
:104CB00084ED100A94ED110A04F1400002F0BEFFE9
:104CC00094ED020A84ED030A94ED040A84ED050ACA
:104CD00094ED010A84ED040A94ED000A84ED060ABD
:104CE00094ED100A10BD00009FED0E0A80ED000A41
:104CF00080ED010A80ED020A80ED030A80ED040ACE
:104D000080ED050A80ED060A80ED0B0A80ED0C0AA5
:104D100080ED0D0A80ED0E0A80ED0F0A80ED100A7D
:104D2000704700000000000080ED070A80ED081ABF
:104D3000C0ED090AC0ED0A1A80ED112AC0ED122A51
:104D4000FFF7D2BF10B50848FFF7CEFF06484C303A
:104D5000FFF7CAFF04489830FFF7C6FF0248BDE8D6
:104D60001040E430FFF7C0BFBC1D002010B5044662
:104D700084ED000AC4ED010A30EE601A84ED021AD7
:104D8000D4ED031A70EEE10AC4ED040AD4ED060A6C
:104D900030EE600A84ED050AD4ED070A60EE810A60
:104DA000C4ED0B0AD4ED0C0A94ED082A42EE010A78
:104DB000C4ED0C0A71EE610A94ED091A60EE810AE5
:104DC000C4ED0D0AD4ED0A0A20EE800A84ED0E0A25
:104DD00094ED120A04F1300002F030FF94ED0B0A5A
:104DE000D4ED0C0A30EE200AD4ED0D0A30EE200A84
:104DF000D4ED0E0A30EE200A84ED0F0A94ED100A6D
:104E000004F13C0002F01AFF94ED020A84ED030A5B
:104E100094ED000A84ED060A94ED0F0A10BD00001F
:104E200080ED070AC0ED080A80ED091AC0ED0A1AE4
:104E300080ED102AC0ED112A80ED123A9FED0B0A89
:104E400080ED0B0A80ED0D0A80ED0C0A80ED020A60
:104E500080ED030A80ED040A80ED050A80ED0F0A5B
:104E600080ED010A80ED000A70470000000000009C
:104E70000FB40F489DF81C1001709DF81D109DF88F
:104E800020209DF81E3041EA02619DF81F20120487
:104E900042EA0322114341609DF821109DF822202F
:104EA000114301819DF82310817204B07047000006
:104EB000941F002038B50D48017841F0010121F020
:104EC000020101700A49B1F84C20A0F80120B1F8A4
:104ED0005710A0F803100090064861230022446890
:104EE000064805490068A04738BD00000C040020B2
:104EF000B010002084030020800B00200800002058
:104F0000002102E0491C0A38C0B20A28FAD2090777
:104F100040EA116070472DE9F04104460025206801
:104F2000C168490617D4C16841F08001C160FDF72E
:104F300023F906464FF47A78042706E0FDF71CF9BA
:104F4000801B404501D9677701252068C06840066D
:104F500001D4012DF2D12846BDE8F08170B5044698
:104F600000252068C16821F08001C1602068806848
:104F7000800606D42046FDF787FE10B10420607736
:104F80000125284670BD2DE9F04FDDE90BC8DDE9AC
:104F90000D9ADDE90967002404E0C4F1020B00F872
:104FA0000B50641C032C02DA0D5D002DF5D110F8B6
:104FB000031F21F03801083162F3020101700188FA
:104FC00063F389110180417866F38501417081881E
:104FD00067F309018180B0F805106CF38C01A0F82B
:104FE0000510C18868F34F11C180B0F8091069F34A
:104FF0008C01A0F8091041896AF34F114181BDE885
:10500000F08F000008B504F0D7FE0090084C094D61
:10501000094EFFF7A5FC60688047A86880473068A4
:10502000804703F0C7FF0221684604F071F9F0E7FA
:10503000F4030020340000200404002008B54FF4DD
:10504000967004F03DF94FF47A7640F22D14274D16
:1050500004F0B2FE00900A21684604F059F928884D
:10506000401C80B22880B0FBF6F106FB110010B99D
:105070001F48006880472888B0FBF4F104FB110149
:1050800021B340F23711B0FBF1F201FB120101B381
:1050900040F24111B0FBF1F201FB1201E1B140F22B
:1050A0007311B0FBF1F201FB1201C1B11521B0FB8C
:1050B000F1F201FB1201A9B11B21B0FBF1F201FBDE
:1050C00012000028C4D100F081FEC1E700F0B6FF55
:1050D000BEE701F02BF8BBE701F0A0F8B8E700F05D
:1050E000BFFEB5E700F0F0FCB2E700003804002096
:1050F0004803002008B504F05FFE0090FFF704F9B4
:105100000A21684604F004F9F8E700007CB504467B
:105110000E4615463346012202212046009500F036
:1051200033F828B1606D40F02000606503207CBD3D
:10513000134814490068B0FBF1F04FF47A7148430A
:1051400001906068B0F5827F0DD133460022802146
:105150002046009500F018F878B1606D40F020000E
:10516000606503207CBD019838B10198401E019014
:1051700020688068C0430006F5D500207CBD000093
:105180004C04002000366E012DE9F84304460F461A
:1051900091461E46089DFCF7EFFF401B351AFCF7B1
:1051A000EBFF804626480068C0F3CB306843009090
:1051B0003AE0701C38D0FCF7DFFFA0EB0800A842F3
:1051C00003D215B1009858B32BE02068416821F054
:1051D000E00141606068B0F5827F0BD1A068B0F556
:1051E000004F02D0B0F5806F04D12068016821F033
:1051F00040010160A06AB0F5005F09D12068016834
:1052000021F4005101602068016841F400510160FF
:10521000012050346070002020700320BDE8F88326
:1052200000250098401E00902068806837EA000042
:1052300004D000204845BCD10020EFE70120F9E769
:105240004C04002010B5502080F31188BFF34F8F1D
:10525000BFF36F8F04F0B6FD18B104494FF08050D2
:105260000860002080F3118810BD000004ED00E00C
:1052700030B593B0302107A8FBF786F9142102A8B6
:10528000FBF782F900251F48016841F08051016059
:10529000006800F0805001901B48016841F4804193
:1052A0000160006800F480400190092007904FF4ED
:1052B0008030089001200C9002240D9480050E90FF
:1052C00006200F90A820109011940720129007A894
:1052D000FDF7E0F908B1FBF74FFF0F2002900394B0
:1052E00004954FF4A05005904FF48050069005218E
:1052F00002A8FDF7AFF8002801D0FBF73DFF13B07F
:1053000030BD000040380240007000400248016893
:1053100041F470010160704788ED00E00148FDF73D
:10532000EEBF0000900F00202DE9F04102682A4DE9
:105330002A4E2B4FDFF8ACC02B4B4FF08048A842D1
:1053400009D0404507D0B04205D0B84203D06045EF
:1053500001D0984203D122F070044A682243A84247
:105360001BD0404519D0B04217D0B84215D0604587
:1053700013D0984211D01D4CA0420ED01C4CA0421C
:105380000BD01C4CA04208D01B4CA04205D01B4C9B
:10539000A04202D01A4CA04203D122F44074CA6841
:1053A00022434C6922F08002224302608A68C26272
:1053B0000A688262A84201D0984201D1096901635A
:1053C000012141610169C90703D0016921F001018F
:1053D0000161BDE8F08100000000014000040040D0
:1053E00000080040000C0040000401400040014063
:1053F000004401400048014000180040001C0040EB
:105400000020004010B501F01F0101238B40046A09
:105410009C430462036A8A401343036210BD10B5C3
:10542000846824F47F4442EA03220A4322438260D0
:1054300010BD826822F070020A4342F007018160C9
:1054400070470000F0B5056A026A22F001020262AC
:105450004368826922F0700222F003020C68144350
:1054600025F002058A682A430E4E0F4FB04201D044
:10547000B84205D122F00805CA682A4322F0040286
:10548000B04201D0B84207D123F4807323F40073F3
:105490004D691D438B692B434360846149684163B7
:1054A0000262F0BD0000014000040140F0B5026A54
:1054B000036A23F0100303624368846924F4E04420
:1054C00024F440740D6844EA052422F020028D681B
:1054D00042EA0512104D114EA84201D0B04206D149
:1054E00022F08002CF6842EA071222F04002A8426E
:1054F00001D0B04209D123F4806323F400634D69E5
:1055000043EA85038D6943EA850343608461496802
:1055100081630262F0BD0000000001400004014010
:10552000F0B5026A036A23F4807303624368C469B6
:1055300024F0700424F003050C682C4322F400725C
:105540008D6842EA0522104D104EA84201D0B042AB
:1055500006D122F40062CF6842EA072222F4806278
:10556000A84201D0B04209D123F4805323F4005360
:105570004D6943EA05138D6943EA05134360C4612D
:105580004968C1630262F0BD0000014000040140AF
:1055900030B5036A026A22F4805202624268C4692A
:1055A00024F4E04424F440740D6844EA052423F410
:1055B00000538D6843EA0533084DA84202D0084DD8
:1055C000A84204D122F480424D6942EA8512426029
:1055D000C46149680164036230BD000000000140FD
:1055E0000004014010B5036A046A24F00104046257
:1055F000846924F0F00444EA021423F00A020A4306
:105600008461026210BD10B5036A046A24F01004BC
:105610000462846924F4704444EA023223F0A00353
:1056200043EA01118261016210BD10B5806B002157
:10563000C185C184FEF79CF810BD70B5846B2068ED
:105640004069C0F3C01094F841100025212904D10D
:1056500018B1E584204600F0C1F820684069C0F325
:10566000801094F84210222904D118B1E585204613
:1056700000F080F8606C40F0100060642046FEF797
:1056800077F870BD10B50146886B096809684FF05E
:105690000003C9052ED4C38501680C3151E8002FE1
:1056A00022F4807241E80024002CF5D10168143105
:1056B00051E8002F22F0010241E80024002CF5D12E
:1056C0000168143151E8002F22F0400241E8002423
:1056D000002CF5D1202180F84210016B012909D15D
:1056E00001680C3151E8002F22F0100241E800243B
:1056F000002CF5D14363016B012902D0FEF7C8FAF3
:1057000010BD818DFEF70AF810BD10B5806B012128
:105710004163016B012902D0FEF7D8FA10BD818DDB
:105720004908FDF7FBFF10BD10B50146886B0968FD
:105730000968C90516D40021C1840168143151E8F3
:10574000002F22F0800241E80023002BF5D10168F0
:105750000C3151E8002F42F0400241E80023002BB9
:10576000F5D110BDFEF7F2FA10BD10B5806BFEF753
:10577000EEFA10BD01680C3151E8002F22F490724E
:1057800041E80023002BF5D10168143151E8002FC6
:1057900022F0010241E80023002BF5D1016B012921
:1057A00009D101680C3151E8002F22F0100241E8C4
:1057B0000023002BF5D1202180F842100021016345
:1057C000704710B50168CA6822F04002CA60202103
:1057D00080F84110FEF7BAFA002010BD01680C31C4
:1057E00051E8002F22F0C00241E80023002BF5D140
:1057F000202180F84110704708B590F84210222906
:1058000001D0022008BD82684FF480539A4201D132
:10581000016921B1816A9A421DD052B10BE0816ABF
:1058200002685268C2F308020A80816A891C816298
:1058300009E002697AB10268526802F07F020A70D8
:10584000816A491C8162C18D491E0904090CC18508
:1058500005D0002008BD026852680A70F0E70168B0
:10586000CA6822F02002CA600168CA6822F4807205
:10587000CA6001684A6922F001024A61202180F869
:10588000421000214163026B012A03D0FEF700FAA7
:10589000002008BD016301680C3151E8002F22F09F
:1058A000100241E80023002BF5D101680A68D206F6
:1058B00002D50A6849680091818DFDF72FFFE7E75F
:1058C0002DE9F041044620680169E26821F4405165
:1058D00011430161A1682069E269014360691043D5
:1058E00001432068C26849F20C639A430A43C260CC
:1058F00020684169A26921F4407111434161334933
:105900002068884202D03249884202D1FCF77CFEEE
:1059100001E0FCF769FEE1690023192764253226BE
:10592000B1F5004F28D061688B0F8A00A0FB0701FA
:10593000FAF71AFD0146B0FBF5F07A42504301EB4D
:10594000800006EB0010B0FBF5F000F0F002B1FBB8
:10595000F5F002EB0012B1FBF5F07B42584301EB8E
:10596000800006EB0010B0FBF5F0216800F00F009E
:1059700010448860BDE8F08161684A18A0FB070107
:105980005B41FAF7F1FC0146B0FBF5F00201B1FB17
:10599000F5F06FF01803584301EB800006EBC000F0
:1059A000B0FBF5F000F0F80002EB4002B1FBF5F0BF
:1059B000584301EB800006EBC000B0FBF5F0216816
:1059C00000F0070010448860D4E700000010014098
:1059D0000014014037B582B004461346039AA26210
:1059E000A38500206064222184F84210E56B1B49E6
:1059F000E963E56B1A492964E56B1A49E964E16BCF
:105A000008652168E06B091DFCF76EFA20680168E3
:105A100040680190206948B120680C3050E8001FB0
:105A200041F4807140E80012002AF5D1206814305A
:105A300050E8001F41F0010140E80012002AF5D1B2
:105A40002068143050E8001F41F0400140E8001287
:105A5000002AF5D105B0002030BD000085560008B1
:105A60000B5700083B56000890F84110212901D03F
:105A7000022070478168B1F5805F01D1016961B191
:105A8000016A4A1C0262026809785160C18C491E91
:105A90000904090CC1840AD013E0016A026809886C
:105AA000C1F308015160016A891C0162EEE70168D7
:105AB000CA6822F08002CA600068C16841F04001F3
:105AC000C1600020704700002DE9F04F2DED068BDE
:105AD00087B0A348807A00EE100AB8EE400ADFEDE6
